:100000000C94CE030C94FF030C94FF030C94FF0399
:100010000C94FF030C94FF030C94FF030C94FF0358
:100020000C94FF030C94FF030C94FF030C94FF0348
:100030000C94FF030C94410C0C94FF030C94FF03ED
:100040000C94FF030C94FF030C94FF030C94FF0328
:100050000C94FF030C94FF030C94FF030C94010D0C
:100060000C94FF030C94CB0C0C94A10C0C94FF0388
:100070000C94FF030C94FF030C94FF030C94FF03F8
:100080000C94FF030C94FF030C94FF030C94FF03E8
:100090000C94FF030C94FF030C94FF030C94FF03D8
:1000A0000C94FF030C94FF030C94FF030C94FF03C8
:1000B0000C94FF030C94FF030C94FF030C94FF03B8
:1000C0000C94FF030C94FF030C94FF030C94FF03A8
:1000D0000C94FF030C94FF030C94FF030C94FF0398
:1000E0000C94FF030C941E060C9451060C943D06D0
:1000F0000C944B060C94EB040C9450060C94BE0428
:100100000C942B060C94FA040C941C050C941A06FF
:100110000C9422060C942F060C9435060C94FB14B8
:100120000C9443060C940E050C944B0D0C94A105F5
:100130000C9447060C9455060C9425060C94100656
:100140000C9454050C9416060C94390600002100FA
:10015000240027002A002D00300033000101000098
:10016000040107010A014602000000FF0800053EE5
:100170005B4F5B3E053E6B4F6B3E051C3E7C3E1C61
:1001800005183C7E3C18051C577D571C051C5E7FDE
:100190005E1C0400183C1805FFE7C3E7FF040018C5
:1001A000241805FFE7DBE7FF0530483A060E052671
:1001B0002979292605407F05050705407F05253F4C
:1001C000055A3CE73C5A057F3E1C1C0805081C1CD0
:1001D0003E7F0514227F221405FFFFFFFFFF05F07D
:1001E000F0F0F0F003FFFFFF05000000FFFF050F38
:1001F0000F0F0F0F0508047E04080510207E201045
:100200000508082A1C0805081C2A080805AA005524
:1002100000AA05AA55AA55AA0530383E3830050669
:100220000E3E0E06020000015F0307000705147F63
:10023000147F1405444AFF4A3205631308646305BA
:1002400036494936480107033E41410341413E05D5
:10025000082A1C2A080508083E08080260E004086D
:10026000080808026060056010080403053E514953
:10027000453E0304027F0571494949460541494904
:100280004936050F0808087F054F49494931053EA1
:100290004949493005030101017F0536494949367D
:1002A00005064949493E026C6C026CEC03081422B5
:1002B000041414141403221408050159090906052D
:1002C0003E415D594E057E0909097E057F49494930
:1002D00036053E41414141057F4141413E057F494F
:1002E000494941057F09090901053E41414979050F
:1002F0007F0808087F03417F4105304141413F05A8
:100300007F08142241057F40404040057F020C02D7
:100310007F057F0408107F053E4141413E057F096E
:10032000090906053E4141617E057F0919294605F7
:1003300046494949310501017F0101053F404040DF
:100340003F051F2040201F053F4038403F056314F4
:100350000814630503047804030561514945430308
:100360007F41410503040810600341417F050402F9
:1003700001020404808080800301020404384444A4
:100380007C047F4444380438444444043844447F63
:10039000043854545804047E05010418A4A47C04B1
:1003A0007F040478017D0384857C047F1028440148
:1003B0007F057C04780478047C0404780438444481
:1003C0003804FC24241804182424FC047C040408A5
:1003D000045854543403047F04043C40407C041CFF
:1003E00020407C053C4030403C046C10106C041CE8
:1003F000A0A07C046454544C0408364141017F049D
:10040000414136080402010201057F4141417F0557
:100410003E55555541053844443844057C2A2A3E0A
:1004200014057E0202060605027E027E0205635561
:10043000494163053844443C0405407E201E2005A4
:1004400006027E0202086313086463006060052AE6
:100450002A2A2A2A03514A4403444A51050000FF2C
:10046000010303E080FF053612362436030205023D
:10047000021818021010053040FF0101041F01018D
:100480001E000000000901017F017F020C027F00B5
:1004900000000000000100017D0418247E240444B3
:1004A0007E454105221C141C2205012A7C2A0101DB
:1004B00077044E55553903020002077E81BDA5A57C
:1004C000817E0326292F0508142A1422040808080F
:1004D0001803080808077E81BD95A9817E050101E2
:1004E0000101010302050203242E2403191512033E
:1004F00015150A02020104F82040780506097F015B
:100500007F021818040080A0C003121F10032629C0
:10051000260522142A140808402F1008041E117CF6
:1005200008402F10080462554C0915553F10080467
:100530001E117C053048484D400578151614780585
:100540007814161578057A1514157A057816151687
:1005500079057815141578057814151478077E092F
:10056000097F494941059EA1612121057C545546D9
:1005700044057C54564544057E55544546057C55F6
:1005800054454403457E4403447E4503467D46036B
:10059000457C4505087F49413E057C0A11227D05C1
:1005A0003844454638053844464538053A454445BB
:1005B0003A0538464546390538454445380522143C
:1005C000081422057C625A463E053C4041423C05E7
:1005D0003C4042413C053C4241423C053C4140419B
:1005E0003C0502047A0502043F12120C057E4949BB
:1005F0004E30043845467C043844467D0438464530
:100600007E043A45467D043845447D04304A4D7A9F
:100610000720545438545458049CA262220438557C
:1006200056580438545659043856555A04385554B7
:100630005902017A027A0103027902030278020464
:10064000304B4B3C047A090A710430494A3004307B
:10065000484A3104304A49320432494A3104394463
:1006600044390508082A08080438544C380438412D
:1006700042780438404279043842417A043A404092
:100680007A0418A0A27904FC282810041AA0A07AE1
:10069000000020002300260029002C002F0032003B
:1006A0000001000003010601090100000A0B020914
:1006B0000C0D0E08070304010000000000000000FC
:1006C000000000000000000000000000000000002A
:1006D00000000000000012111000000000000000E7
:1006E000000000000000000000000000000000000A
:1006F0000102102020080810204010204080020134
:100700000201080402010102040810204080804018
:100710002010080402018004020180402010080417
:1007200002010804020101020408102040800102B5
:1007300004081020408000002200250028002B0023
:100740002E003100340002010000050108010B01F8
:1007500005050505070508080808020202020A0A3D
:10076000080804040404010101010101010103035B
:10077000030303030303040707070C0C0C0C0C0C06
:100780000C0C0202020206060606060606060B0B03
:100790000B0B0B0B0B0B02004B0DFB1411241FBE9C
:1007A000CFEFD1E2DEBFCDBF00E00CBF14E0A0E090
:1007B000B2E0E6EDFEE200E00BBF02C007900D9252
:1007C000A034B107D9F725E0A0E4B4E001C01D9240
:1007D000A736B207E1F713E0CDECD3E000E006C0A6
:1007E00021970109802FFE010E942516CC3CD107DC
:1007F00080E00807A9F70E94900D0C9459170C94FB
:100800000000829590E09C013595279535952795B8
:100810002373880F991F880F991F8C7C282B30E039
:10082000C901959587958575220F331F2A7A822BEA
:1008300008958F929F92AF92BF92CF92DF92EF92E4
:10084000FF92CF93DF93982F977086958695869524
:1008500040914D0520914405222309F455C0692F8C
:1008600070E020914505222309F447C027E030E0DD
:10087000261B370B91E001C0990F2A95EAF78417E0
:1008800008F07AC060914E0570914F0529E0829F73
:10089000600D711D1124E091460530E020E080E0FC
:1008A000A7E0B0E0C12CD12C7601C394F22FAD01AA
:1008B000421B530BE11101C0A901460F571FEA016A
:1008C0004881492351F04601570104C0880C991C06
:1008D000AA1CBB1CFA95D2F788292F5F3F4F2830FE
:1008E000310521F7DF91CF91FF90EF90DF90CF900E
:1008F000BF90AF909F908F90089521E001C0220F8C
:100900009A95EAF7922FBBCF8417B0F520914E0548
:1009100030914F05D9E08D9F200D311D112440915C
:100920004605892F90E0509145055523C1F0442399
:1009300031F047E050E0FA01E81BF90BCF01820FDC
:10094000931FEC018881DF91CF91FF90EF90DF90B2
:10095000CF90BF90AF909F908F900C940104442350
:1009600031F047E050E0FA01E81BF90BCF01820FAC
:10097000931FEC018881B6CF80E0B4CFAF92BF92D5
:10098000CF92DF92EF92FF920F931F93CF93DF935B
:100990006C017B018B01040F151FEB015E01AE188A
:1009A000BF08C017D10759F06991D601ED91FC91AC
:1009B0000190F081E02DC6011995892B79F7C501C9
:1009C000DF91CF911F910F91FF90EF90DF90CF902B
:1009D000BF90AF900895FC01538D448D252F30E0DA
:1009E000842F90E0821B930B541710F0CF9608953C
:1009F00001970895FC01918D828D981761F0A28D69
:100A0000AE0FBF2FB11D5D968C91928D9F5F9F732E
:100A1000928F90E008958FEF9FEF0895FC01918DE4
:100A2000828D981731F0828DE80FF11D858D90E051
:100A300008958FEF9FEF0895FC01918D228D892FEE
:100A400090E0805C9F4F821B91098F7399270895D6
:100A500084EA94E00E941C0521E0892B09F420E03F
:100A6000822F0895FC01A48DA80FB92FB11DA35AA0
:100A7000BF4F2C91848D90E001968F739927848FBE
:100A8000A689B7892C93A089B1898C9183708064E1
:100A90008C93938D848D981306C00288F389E02D82
:100AA00080818F7D80830895EF92FF920F931F9333
:100AB000CF93DF93EC0181E0888F9B8D8C8D981311
:100AC0001AC0E889F989808185FF15C09FB7F8941D
:100AD000EE89FF896083E889F98980818370806469
:100AE00080839FBF81E090E0DF91CF911F910F91B4
:100AF000FF90EF900895F62E0B8D10E00F5F1F4FC3
:100B00000F731127E02E8C8D8E110CC00FB607FCD1
:100B1000FACFE889F989808185FFF5CFCE010E945F
:100B20003205F1CFEB8DEC0FFD2FF11DE35AFF4F96
:100B3000F0829FB7F8940B8FEA89FB8980818062ED
:100B4000CFCFCF93DF93EC01888D8823B9F0AA89AA
:100B5000BB89E889F9898C9185FD03C0808186FD78
:100B60000DC00FB607FCF7CF8C9185FFF2CF8081C7
:100B700085FFEDCFCE010E943205E9CFDF91CF9105
:100B8000089580E090E0892B29F00E9428058111CA
:100B90000E94000080E090E0892B49F080E090E026
:100BA000892B29F00E94000081110E94000080E042
:100BB00090E0892B49F080E090E0892B29F00E9499
:100BC000000081110E94000080E090E0892B49F034
:100BD00080E090E0892B29F00E94000081110C94A4
:100BE000000008958150823108F05AC0E82FF0E0EB
:100BF0008827E250FA4F8F4F0C9425161E062206C6
:100C0000100616061A06500625062B062F06350670
:100C100039063D064306470650064B065106550663
:100C2000809180008F77809380000895809180006C
:100C30008F7DF9CF80918000877FF5CF84B58F7746
:100C400084BD089584B58F7DFBCF8091B0008F77F0
:100C50008093B00008958091B0008F7DF9CF80918E
:100C600090008F77809390000895809190008F7D01
:100C7000F9CF80919000877FF5CF8091A0008F778A
:100C80008093A00008958091A0008F7DF9CF80917E
:100C9000A000877FF5CF809120018F77809320017E
:100CA0000895809120018F7DF9CF80912001877F69
:100CB000F5CF1F93CF93DF93282F30E0F901E6554E
:100CC000F94F8491F901E051F94FD491F901E05BBA
:100CD000F84FC491CC23A9F0162F81110E94F20580
:100CE000EC2FF0E0EE0FFF1FEA5CF84FA591B491F6
:100CF0008FB7F894EC91111108C0D095DE23DC93E6
:100D00008FBFDF91CF911F910895DE2BF8CF909187
:100D1000000289130DC0E6E9F7E0E4919FEF90939C
:100D20000002E230E1F038F4EE2381F0E13089F0A6
:100D300060E00C945906E43049F110F1E530C1F758
:100D4000909173009D7F90937300F2CF10926E008C
:100D5000EFCF90916F009D7F90936F00E9CF9091BE
:100D600070009D7F9093700091E09093B0009091FF
:100D7000B100987F94609093B1001092B300D8CFE7
:100D8000909171009D7F90937100D2CF90917200ED
:100D90009D7F90937200CCCFCF93DF9390E0FC01C6
:100DA000E051F94F2491805B984FFC018491882396
:100DB000D1F090E0880F991FFC01E45BFE4FA591F4
:100DC000B491FC01EA5CF84FC591D491623071F4A2
:100DD0009FB7F8943C91822F809583238C93E88170
:100DE0002E2B28839FBFDF91CF9108958FB7F89462
:100DF000EC912E2B2C938FBFF6CF863308F08653C1
:100E000020917B00982F9870277F922B90937B00E6
:100E10008770806480937C0080917A0080648093E6
:100E20007A0080917A0086FDFCCF809178009091C5
:100E3000790008950C941904EF92FF920F931F9379
:100E4000CF93DF9380914A058823A1F08091A3047A
:100E5000882361F08FB7F8949091A304913071F5D5
:100E60009DB39093A2049DB39DBB8FBF80E58CBDC5
:100E700081E08DBD60E0809149050E945906809116
:100E80004A058823F1F030E020E080914D0590E0A4
:100E9000880F991F2817390708F03DC0E0915005C9
:100EA000F0915105E20FF31F80818EBD00000DB45B
:100EB00007FEFDCF8EB52F5F3F4FE7CF8093A20493
:100EC000D5CFD0E0C0E080914D0590E0880F991F0C
:100ED000C817D90700F5E0915005F0915105EC0FC6
:100EE000FD1F0081F0904805E090470518E0602F55
:100EF000661F6627661F8E2D0E945906000F61E04F
:100F00008F2D0E94590660E08F2D0E9459061150C6
:100F100071F72196D8CF61E0809149050E9459066A
:100F200080914A05882371F08091A304882351F0B1
:100F30009FB7F8942091A3048091A204213049F432
:100F40008DBB9FBFDF91CF911F910F91FF90EF90CD
:100F500008958FBFF7CF0F931F93CF93DF938091A7
:100F60009D0484300CF44CC0E3E0082E000C990B77
:100F7000F1E0E81719065CF5ACE8B4E033E021E0F5
:100F8000222329F01E962C911E972F272170315075
:100F900011963111F5CF60919A0440919B043091E4
:100FA0009C04222391F070E07595679560939A04F4
:100FB00050E05595479540939B04232F30E035959D
:100FC000279520939C04EF5FD4CFE0939D04D091AC
:100FD0009A0400919B04C0919C0410919E041111ED
:100FE0003FC081E00E941A078D2341F40E941A0736
:100FF000802321F491E0CC2309F449C090E047C05C
:10100000833029F333E0082E000C990B38171906AA
:10101000F1F2ECF240919A0447FD1DC020919B042F
:1010200027FD19C020919C042095221F2227221FF2
:1010300060919B0450919C04222379F0440F4093CB
:101040009A04262F220F20939B04252F220F2093F2
:101050009C043150DBCF20E0EBCF30939D04B7CF21
:101060008091A104482F50E0212F012E000C330B5A
:10107000BA01615071096217730779F48150D11177
:10108000BDCF0E941A078C2391E009F0B7CF892FBA
:10109000DF91CF911F910F91089517FDAFCF4217A8
:1010A00053070CF4ABCF81E0810F0E941A078D2308
:1010B00009F0A4CF812F0E941A07802309F09ECF48
:1010C0008FEF810FDECFFC0101900020E9F731970F
:1010D000AF01481B590BBC0184EA94E00C94BE0498
:1010E0008F929F92AF92BF920F931F93CF93DF93F4
:1010F000CDB7DEB7A1970FB6F894DEBF0FBECDBF58
:1011000019A2423008F44AE08E010F5D1F4F842E71
:10111000912CB12CA12CA50194010E94F415E62F6D
:10112000B901CA01EA30F4F4E05DD801EE938D0113
:10113000232B242B252B79F790E080E0109719F0D2
:10114000CD010E946308A1960FB6F894DEBF0FBED2
:10115000CDBFDF91CF911F910F91BF90AF909F9026
:101160008F900895E95CE1CFCF92DF92EF92FF92EA
:10117000CF93DF936B017C016DE284EA94E00E94DF
:101180005405EC0166277727CB016C197D098E0980
:101190009F094AE00E9470088C0F9D1FDF91CF913C
:1011A000FF90EF90DF90CF900895BC01990F880BCE
:1011B000990B97FD0C94B4084AE00C947008E2E493
:1011C000F5E0438550E0440F551F70E060E08685F0
:1011D00097850C945217EF92FF920F931F93CF9322
:1011E000DF93FF24F394D0E0C0E001E010E0B9E029
:1011F000EB2E0E94DF0898010C2E02C0220F331F35
:101200000A94E2F7E0E090E080914D05E817E0F500
:10121000EE9DB0011124A0914E05B0914F05A60F8F
:10122000B71F18964C9150E042235323452B51F1A0
:101230004E2F50E08150990B841B950B880F991FFE
:10124000A0915005B0915105A80FB91FFC92A09133
:101250004E05B0914F05A60FB71FAC0FBD1F6C9187
:1012600080914D058150990B841B950B880F991F18
:101270004091500550915105840F951FDC01119646
:101280006C9391E0EF5FC0CF91110E941C072196F3
:10129000F394C830D10509F0ACCF80E099E02091FB
:1012A0004D05821758F4E0914E05F0914F05899F46
:1012B000E00DF11D112410868F5FF1CFDF91CF91EA
:1012C0001F910F91FF90EF900895FF920F931F933E
:1012D000CF93DF938A30910509F461C08B01EC0153
:1012E000F0904D050E94DF0840E0E02F5FEF5F0DBA
:1012F000C230D10509F449C088F42097E9F09E2F47
:101300008BE0C130D105F1F04F5F541788F7DF91C2
:10131000CF911F910F91FF900C941C07C330D10502
:10132000B9F1C430D10581F791E00115110509F437
:1013300090E0919589E006C091E00115110509F052
:1013400090E08CE0642F70E020914D052150330B2C
:10135000261B370B220F331FA0915005B09151056A
:10136000A20FB31F8C9320914D052150330B261BE8
:10137000370B220F331F6091500570915105260FD6
:10138000371FD90111969C93BFCF9E2F8AE0DACFE9
:1013900091E00115110509F490E08FE0D3CF81E0D1
:1013A0006130710509F080E0809356056130710568
:1013B00039F4DF91CF911F910F91FF900C94EB08BE
:1013C000DF91CF911F910F91FF900895DF92EF92DF
:1013D000FF920F931F93CF93DF9399E0899F800132
:1013E0001124F12CE12CC82FD0E0DD24D394DE0CA5
:1013F000E0914E05F0914F05E00FF11F808590E0E0
:101400000E2C02C0959587950A94E2F780FF2DC0B7
:101410000E94DF0880914D058150990B8C1B9D0B1C
:10142000880F991F2091500530915105820F931F0D
:10143000FC01D082E0914E05F0914F05E00FF11FC5
:10144000EE0DFF1D408120914D052150330B2C1BCB
:101450003D0B220F331F8091500590915105280FAD
:10146000391FF90141830E941C07FFEFEF1AFF0AA1
:1014700088E0E816F10409F0B8CF80914E0590910C
:101480004F05080F191FF8011086DF91CF911F91AA
:101490000F91FF90EF90DF9008957F928F929F922F
:1014A000AF92BF92CF92DF92EF92FF920F931F9372
:1014B000CF93DF938C01862F902F9770F92E93E0B6
:1014C000169507959A95E1F7D02FC0914405909114
:1014D0004D05CC2309F47EC0C0E0091708F05DC0BB
:1014E000A9E00A9FF001112441E050E060E070E0C3
:1014F0004A015B010F2C04C0880C991CAA1CBB1C60
:101500000A94D2F7782C809427E030E02F19310923
:1015100004C0440F551F661F771F2A95D2F7C42FAA
:10152000942F909550E040E0A82EB12C67E070E039
:101530009A01E0904E05F0904F05EE0EFF1E80914F
:101540004605909045056501042E02C0D594C794C8
:101550000A94E2F7C0FE30C0882319F09B01241BD7
:10156000350B2E0D3F1DD9018C91F72C9110FC2EBF
:101570008F29D9018C934F5F5F4F48305105C1F6D9
:1015800080914E0590914F05E80FF91F8FEF8087EE
:10159000C0915605C1115FC0C1E08C2FDF91CF9182
:1015A0001F910F91FF90EF90DF90CF90BF90AF9081
:1015B0009F908F907F900895882319F09B01241BA2
:1015C000350B2E0D3F1DD9018C91F82C9110F92E61
:1015D0008F21CFCF091708F79091450591110E94EF
:1015E0000104B9E00B9FA0011124E0914E05F09198
:1015F0004F05E40FF51F6F2D70E09091460527E031
:1016000030E0261B370B911101C09B01E20FF31F45
:101610008083E0914E05F0914F05E40FF51F208582
:1016200080914605882389F047E050E0461B570B20
:1016300081E090E0A0E0B0E004C0880F991FAA1FED
:10164000BB1F4A95D2F7822BA2CF81E001C0880F41
:10165000FA94EAF7F8CF80914D05D81708F09CCF9F
:10166000802F0E94E60999CFCF93DF93D091A104F8
:10167000C0E0DC17A9F08C2F0E941A078F3F71F48D
:1016800060E08C2F90E00E944D0A83E090E0909300
:10169000910480939004DF91CF910895CF5FE9CFBB
:1016A0001092910410929004F6CFFF920F931F9323
:1016B000CF93DF9300D000D0CDB7DEB7082FF62E42
:1016C000172F81E0800F0E9419048983802F0E94C8
:1016D00019048A838FEF800F0E9419048B839E0167
:1016E0002F5F3F4FEF2DF12FBE016C5F7F4FAF019A
:1016F0004D5F5F4FD9019D919D0181918095892317
:10170000DB018D93BD01E417F507A1F710E06C81B3
:10171000C80101960E944D0A6D81C8010E944D0AC0
:101720006E81C801019726960FB6F894DEBF0FBEF2
:10173000CDBFDF91CF911F910F91FF900C944D0A77
:10174000EF92FF921F93CF93DF9300D000D0CDB7DD
:10175000DEB7182F7B0181E0810F0E941904898375
:10176000812F0E9419048A838FEF810F0E94190430
:101770008B83F7019E012F5F3F4FBE016C5F7F4F50
:10178000A7014D5F5F4F8191D9019D919D01892BEB
:10179000DB018D93BD01E417F507A9F7E12EF12CCC
:1017A0006C81C70101960E944D0A6D81C7010E949C
:1017B0004D0A112381F06E81C701019726960FB65D
:1017C000F894DEBF0FBECDBFDF91CF911F91FF9088
:1017D000EF900C944D0A26960FB6F894DEBF0FBE1C
:1017E000CDBFDF91CF911F91FF90EF9008950F93A0
:1017F0001F93CF93DF930BE212E0D0E0C0E0F8013B
:1018000062918F01CE010E944D0A2196C032D1050E
:10181000B1F7DF91CF911F910F91089590E069E0AA
:1018200058E04FEF969F90011124A0914E05B09182
:101830004F05A20FB31FFD01752F11927A95E9F79D
:10184000E0914E05F0914F05E20FF31F40879F5F37
:10185000891740F78091560581110C94EB08089583
:1018600061E070E082E090E00E94650961E070E074
:101870008AE090E00E94650980914D0581500C94AA
:101880000E0C1F920F920FB60F9211240BB60F92EF
:101890002F933F934F935F936F937F938F939F9378
:1018A000AF93BF93EF93FF93809160049091610495
:1018B000A0916204B0916304892B8A2B8B2BE1F1F8
:1018C00090914F04E0915004F09151048081892758
:1018D00080838091600490916104A0916204B09132
:1018E0006304181619061A061B069CF480916004FE
:1018F00090916104A0916204B09163040197A109E1
:10190000B1098093600490936104A0936204B09342
:101910006304FF91EF91BF91AF919F918F917F9160
:101920006F915F914F913F912F910F900BBE0F9050
:101930000FBE0F901F901895809100020E9487069D
:10194000E8CF1F920F920FB60F9211240BB60F9291
:101950002F933F934F935F936F937F938F939F93B7
:10196000AF93BF93EF93FF9384EA94E00E94320514
:10197000FF91EF91BF91AF919F918F917F916F9167
:101980005F914F913F912F910F900BBE0F900FBE23
:101990000F901F9018951F920F920FB60F9211245F
:1019A0000BB60F922F938F939F93EF93FF93E0913A
:1019B000B404F091B5048081E091BA04F091BB04C5
:1019C00082FD1DC090818091BD048F5F8F73209137
:1019D000BE04821741F0E091BD04F0E0EC55FB4FEE
:1019E000958F8093BD04FF91EF919F918F912F91DF
:1019F0000F900BBE0F900FBE0F901F901895808117
:101A0000F2CF1F920F920FB60F9211242F933F9394
:101A10008F939F93AF93BF938091700490917104C3
:101A2000A0917204B09173043091440423E0230F19
:101A30002D3758F50196A11DB11D209344048093C4
:101A4000700490937104A0937204B0937304809116
:101A5000400490914104A0914204B0914304019646
:101A6000A11DB11D8093400490934104A0934204B2
:101A7000B0934304BF91AF919F918F913F912F916C
:101A80000F900FBE0F901F90189526E8230F029617
:101A9000A11DB11DD2CFE4EAF4E01382128288EED8
:101AA00093E0A0E0B0E084839583A683B78383EAC4
:101AB00092E09183808385EC90E09587848784EC25
:101AC00090E09787868780EC90E0918B808B81EC0B
:101AD00090E0938B828B82EC90E0958B848B86ECEC
:101AE00090E0978B868B118E128E138E148EE2E40B
:101AF000F5E08BE085838DE086838AE0878310861E
:101B000081E495E09287818784E0838781E0848BFC
:101B100021E030E031832083828313821482089590
:101B2000CF93DF9300D01F921F92CDB7DEB778948A
:101B300084B5826084BD84B5816084BD85B58260D2
:101B400085BD85B5816085BD80916E008160809383
:101B50006E001092810080918100826080938100EC
:101B600080918100816080938100809180008160FC
:101B7000809380008091B10084608093B100809157
:101B8000B00081608093B00080919100826080936A
:101B900091008091910081608093910080919000EC
:101BA0008160809390008091A10082608093A10069
:101BB0008091A10081608093A1008091A00081604C
:101BC0008093A00080912101826080932101809107
:101BD00021018160809321018091200181608093A7
:101BE000200180917A00846080937A0080917A004D
:101BF000826080937A0080917A00816080937A007D
:101C000080917A00806880937A001092C100E09100
:101C1000B404F091B50492E09083E091B004F091A7
:101C2000B1041082E091B204F091B30480E18083AA
:101C30001092BC04E091B804F091B90486E080836E
:101C4000E091B604F091B704808180618083E091D7
:101C5000B604F091B704808188608083E091B60477
:101C6000F091B704808180688083E091B604F091A0
:101C7000B70480818F7D808319821A821B82209114
:101C8000B1023091B2024091B3022B833C834D8369
:101C900028E030E0309379042093780421EB32E09F
:101CA00030937B0420937A0490937D0485E0FE01B9
:101CB0003196A2E8B4E001900D928A95E1F78CE8A4
:101CC00080937C048BE690E0A0E0B0E080937E04FB
:101CD00090937F04A0938004B093810461E088E036
:101CE0000E94CC0684E090E09093470480934604E1
:101CF00086E390E0909349048093480487E390E062
:101D000090934B0480934A0462E084E00E94CC06E6
:101D100088EC90E0A0E0B0E080938C0490938D0478
:101D2000A0938E04B0938F041092910410929004AB
:101D300088E18093A10487E0809392042FB7F89400
:101D40006091700470917104809172049091730499
:101D50002FBF611571058105910511F00E94B9151C
:101D600080914A05882309F4C4C01FB7F894809174
:101D70004504811127C0E5E8F7E08491E5E2F7E04A
:101D80009491E82FF0E0EE0FFF1FE45BFE4FA5916A
:101D9000B491EC91E92321F461E085E30E945906B6
:101DA00061E085E30E94CC068CB580618CBD8CB56A
:101DB00080648CBD61E084E30E94CC0661E083E333
:101DC0000E94CC06809145048F5F809345041FBF1D
:101DD00061E0809149050E94CC0661E0809149054F
:101DE0000E94590610925305109252051092550503
:101DF000109254058091580590915905865691404E
:101E000009F49CC0E6E6F1E0F0935905E09358052B
:101E100010925A0588E080935B0510925E0510923F
:101E20005D058FEF90E09093600580935F051092C1
:101E3000620510926105E491E63409F033C0E7E6EB
:101E4000F1E0E491E13009F45FC082E090E0E2303B
:101E500029F5E8E6F1E08491E9E6F1E0E49190E02B
:101E6000982F88278E0F911D90935E0580935D05B6
:101E7000EAE6F1E08491EBE6F1E0E49190E0982F5E
:101E800088278E0F911D9093600580935F05ECE687
:101E9000F1E0E491E0935B0587E090E090936205C8
:101EA00080936105C0906105D0906205F12CE12C12
:101EB00020915D0530915E0540915F055091600570
:101EC00060E04217530708F437C0F601EA59FE4FA5
:101ED0008491681708F4682F90E0B0E0A0E00196C4
:101EE000A11DB11DC80ED91EEA1EFB1E2F5F3F4F5C
:101EF000E8CF61E0809147050E94CC0661E08091C7
:101F000048050E94CC0664CFE8E6F1E0E491F0E0F9
:101F1000F0935E05E0935D05E9E6F1E0E491F0E021
:101F2000F0936005E0935F05EAE6F1E0E491E09369
:101F30005B0585E090E0B2CF60935C0510914D05A4
:101F400039E0139FC00111240E942D167C0190934B
:101F50004F0580934E05812F90E0880F991F0E94B6
:101F60002D169093510580935005892B29F1EF2868
:101F700019F170E060E083E090E00E94650967E09D
:101F800070E081E090E00E94650967E070E082E027
:101F900090E00E94650970E060E084E090E00E94BB
:101FA000650980914D0581500E940E0C70E060E043
:101FB00090E080E00E9465090E94300C0E94F70BBF
:101FC00092E0292E312C88248A94982C5401209157
:101FD0008904211109C080914A040E94FD0621E074
:101FE000893592400CF420E02093890410918A04F2
:101FF000111124C020914604309147043327F90180
:10200000E655F94F8491F901E051F94F0491F90136
:10201000E05BF84F1491112309F497C181110E94DC
:10202000F205E12FF0E0EE0FFF1FE057F94FA59109
:10203000B491EC910E2311E009F010E010938A04A2
:1020400000914804802F0E94FD06893592400CF0D3
:102050007EC1802F0E94FD068039914034F48FEFBD
:102060009FEF909388048093870480918B0488234A
:1020700009F49BC42FB7F894809170049091710477
:10208000A0917204B09173042FBF40916C045091E1
:102090006D0460916E0470916F048C019D01041BAE
:1020A000150B260B370B40917E0450917F046091F5
:1020B000800470918104041715072607370708F478
:1020C000F4C080936C0490936D04A0936E04B0935D
:1020D0006F0480918204811132C3E0917A04F091FF
:1020E0007B04809183049F0193E0899F200D311D23
:1020F0001124D90112968C911297882309F42AC1D0
:10210000AC91F901218180938204809178049091AF
:102110007904222309F410C3E6E9F7E0B0E0AA0F3E
:10212000BB1FA55DBD4F2450CD90DC9002C0CC0CF0
:10213000DD1C2A95E2F720910002281311C11491A9
:1021400017FDAEC061E00E94CC06112319F01230D9
:1021500009F04CC2F12CE12C60E072E18AE790E0DA
:10216000A70196010E94C21529013A01BA01A901ED
:1021700041505109610971094F3F510561057105D0
:1021800009F00CF41BC260E472E48FE090E0A70158
:1021900096010E94C215BA01A90141505109610975
:1021A0007109123009F0C7C182E04F3F5105610546
:1021B000710509F00CF463C060E970ED83E090E014
:1021C000A70196010E94C215BA01A9014150510907
:1021D0006109710983E04F3F51056105710509F0FF
:1021E0000CF44DC068E478EE81E090E0A701960120
:1021F0000E94C215BA01A901415051096109710932
:1022000084E04F3F510561057105C9F1C4F164E2F5
:1022100074EF80E090E0A70196010E94C215BA0118
:10222000A901415051096109710985E04F3F5105EC
:102230006105710521F118F162E17AE780E090E033
:10224000A70196010E94C215BA01A9014150510986
:102250006109710986E04F3F51056105710579F00B
:1022600070F0B301A2018AE075956795579547957F
:102270008A95D1F7415051096109710987E0909120
:10228000B100987F892B8093B100123009F444C2C9
:102290000CF03BC2112309F498C1113009F4D4C1E8
:1022A000809183048F5F809383042FB7F89480918B
:1022B000700490917104A0917204B09173042FBFC7
:1022C0004091740450917504609176047091770484
:1022D0008C019D01041B150B260B370B40918C04C0
:1022E00050918D0460918E0470918F04041715072E
:1022F0002607370708F455C3809374049093750438
:10230000A0937604B0937704809190049091910407
:102310008130910509F442C208F4CCC2039709F454
:1023200012C20E94340B2091900430919104B901A3
:10233000032E000C880B990B97FF55C30E94B4081D
:102340008DE394E00E9463082CC311E077CE81E016
:1023500090E087CE10928304A08121818281D3CE28
:102360002F3F09F09DCF809300021491212F1F3F32
:1023700009F496CF123009F473C058F4112391F187
:10238000113009F44BC027FD8BCF61E00E94CC06D1
:10239000DECE143009F4ADC008F488C0153099F7CA
:1023A0001092200110922101209121012860209398
:1023B0002101209121012160209321019C013327DB
:1023C000F901E05BF84FE491F0E0EE0FFF1FEA5CEB
:1023D000F84F45915491F901E051F94FE491E093A0
:1023E0004C04B0CE14BC15BC24B5226024BD25B568
:1023F000216025BD9C013327F901E05BF84FE49192
:10240000F0E0EE0FFF1FEA5CF84F45915491F9019F
:10241000E051F94FE491E093530494CE1092800080
:1024200010928100209181002860209381002091EA
:1024300081002160209381009C013327F901E05B3A
:10244000F84FE491F0E0EE0FFF1FEA5CF84F459182
:102450005491F901E051F94FE491E093520472CEA6
:102460001092B0001092B1002091B0002260209331
:10247000B0002091B10021602093B1009C0133276E
:10248000F901E05BF84FE491F0E0EE0FFF1FEA5C2A
:10249000F84F459154915093510440935004F901E1
:1024A000E051F94FE491E0934F044CCE109290002C
:1024B000109291002091910028602093910020912A
:1024C00091002160209391009C013327F901E05B8A
:1024D000F84FE491F0E0EE0FFF1FEA5CF84F4591F2
:1024E0005491F901E051F94FE491E0934E0413E067
:1024F00029CE1092A0001092A1002091A100286086
:102500002093A1002091A10021602093A1009C01B3
:102510003327F901E05BF84FE491F0E0EE0FFF1F85
:10252000EA5CF84F45915491F901E051F94FE4917B
:10253000E0934D0407CE4F3F51056105710509F049
:102540000CF452C068E478EE81E090E0A7019601B7
:102550000E94C215BA01A9014150510961097109CE
:1025600084E0111163CE83E04F3F51056105710591
:1025700041F13CF162E17AE780E090E0A701960149
:102580000E94C215BA01A90141505109610971099E
:1025900084E04F3F51056105710599F090F0B3015A
:1025A000A2019AE075956795579547959A95D1F749
:1025B000415051096109710985E003C081E01111A1
:1025C0005ECE95B5987F892B85BD47BD8092680406
:1025D00090926904A0926A04B0926B0480916E009C
:1025E000826080936E005CCE82E0E9CFF12CE12C1A
:1025F00060E072E18AE790E0A70196010E94C215AF
:10260000BA01A901415051096109710991E04115CF
:102610005105F1E06F0771057CF068E478EE81E028
:1026200090E0A70196010E94C215BA01A90141508C
:1026300051096109710993E01130C1F48091810061
:10264000887F892B80938100509389004093880074
:102650008092640490926504A0926604B09267042C
:1026600080916F00826080936F001ACE1330C1F4A6
:1026700080919100887F892B8093910050939900DD
:102680004093980080925C0490925D04A0925E0456
:10269000B0925F048091710082608093710000CEDF
:1026A0001430C1F48091A100887F892B8093A10010
:1026B0005093A9004093A800809258049092590426
:1026C000A0925A04B0925B04809172008260809361
:1026D0007200E6CD153009F0D8CD80912101887FB8
:1026E000892B8093210150932901409328018092E6
:1026F000540490925504A0925604B09257048091CD
:102700007300826080937300CBCD143089F20CF497
:10271000B5CF153041F3C4CD4093B300809260042F
:1027200090926104A0926204B09263048091700060
:10273000826080937000B4CD0E948706B1CD815035
:1027400080938204B2CD3092910420929004D09074
:10275000A104E12CDE1409F442C18E2D0E941A0757
:1027600091E09E0D811116C00D2D10E0CC24C39474
:10277000CE0CF12CC70101968017910769F08C2DC2
:102780000E941904682FC7010E944D0AEC2CCD1439
:1027900068F3C9CDE92EDECF80E0F4CF0091870445
:1027A000109188041092880410928704E0908904A4
:1027B00010928904F0908A0410928A04C8010E9441
:1027C000D5088AE394E00E9463088E2D90E00E9471
:1027D000D5088AE394E00E9463088F2D90E00E9460
:1027E000D5088AE394E00E94630880919D048F5F7E
:1027F000101611062CF0012B29F080919D048150B8
:1028000080939D0480919E0492E0E11001C091E0CC
:10281000891B80939E04FF2031F080919F048F5F7D
:10282000837080939F0420919F04E091A0048E2FD9
:1028300090E0FC01EE0FFF1FE80FF91F35E1239F29
:10284000E00DF11D1124ED5BFD4F808180939A0412
:10285000818180939B04828180939C0463E974E06E
:10286000809197040E94550B0E94AB07882381F04A
:1028700087E0EAE9F4E0A3E9B4E001900D928A95DB
:10288000E1F763E974E0809197040E94A00B4BCDBF
:10289000E11002C0FF2049F080919E048F5F809379
:1028A0009E040E94AB078111E3CF309291042092E5
:1028B0009004E7CF60919204673009F452C083E03E
:1028C000689FB00111246D5B7D4F8BE10E94550B19
:1028D000809192048093A0040E946A1527E030E062
:1028E00040E050E00E94C2156093920413E0619FA3
:1028F000B00111246D5B7D4F8BE10E94A00B109203
:102900009F0410939D048091A104825080939E04A3
:102910000E94AB07811130C010928B048091780423
:102920000E948706109282041092830410929104F0
:102930001092900487E080939204E3E9F4E0DF01D1
:10294000282F1D922A95E9F7EAE9F4E0DF011D92AC
:102950008A95E9F70E94300C0E94F70B0E94C1058E
:1029600036CB0E946A1527E030E040E050E00E943C
:10297000C2156093A004B0CF87E0EAE9F4E0A3E9D0
:10298000B4E001900D928A95E1F763E974E08091DB
:1029900097040E94A00BE1E0F0E0F0939104E09333
:1029A000900481E080938B04D9CF10928A04109315
:1029B0008B04112399F20E94300C27E9E22E22E0C9
:1029C000F22E0FE110E0D7016D917D01C8010E9448
:1029D0004D0A0150110907311105A9F7BFCF209108
:1029E000900430919104B901330F880B990B4AE0A0
:1029F0000E947008A5CC80914A05882399F09FB762
:102A0000F89480914504882319F0815080934504FF
:102A100080914504811105C08CB58F7B8CBD1092CF
:102A2000A3049FBF80914E0590914F050E94C91647
:102A300080915005909151050C94C9168F929F92E8
:102A4000AF92BF92CF92DF92EF92FF92CF93DF933C
:102A5000EC01688179818A819B816115710581050D
:102A6000910521F464E279ED8BE597E02DE133EFF8
:102A700041E050E00E94C21549015A019B01AC019E
:102A8000A7EAB1E40E94E1156B017C01ACEEB4EF62
:102A9000A50194010E94EF15C60ED71EE81EF91E6F
:102AA000F7FE06C081E0C81AD108E10880E8F80AFC
:102AB000C882D982EA82FB82C701B6019F77DF9183
:102AC000CF91FF90EF90DF90CF90BF90AF909F900D
:102AD0008F9008958F929F92AF92BF92CF92DF9284
:102AE000EF92FF92609101027091020280910302C5
:102AF00090910402611571058105910521F464E24C
:102B000079ED8BE597E02DE133EF41E050E00E9455
:102B1000C21549015A019B01AC01A7EAB1E40E9428
:102B2000E1156B017C01ACEEB4EFA50194010E94AC
:102B3000EF15C60ED71EE81EF91EF7FE06C081E08F
:102B4000C81AD108E10880E8F80AC0920102D092C0
:102B50000202E0920302F0920402C701B6019F77DD
:102B6000FF90EF90DF90CF90BF90AF909F908F90AD
:102B70000895609301027093020280930302909380
:102B800004020895052E97FB1EF400940E94D915A7
:102B900057FD07D00E94F41507FC03D04EF40C94A7
:102BA000D91550954095309521953F4F4F4F5F4F28
:102BB000089590958095709561957F4F8F4F9F4FA9
:102BC00008950E941616A59F900DB49F900DA49F86
:102BD000800D911D11240895B7FF0C94E1150E94FA
:102BE000E115821B930B0895A1E21A2EAA1BBB1BB1
:102BF000FD010DC0AA1FBB1FEE1FFF1FA217B307C9
:102C0000E407F50720F0A21BB30BE40BF50B661FDE
:102C1000771F881F991F1A9469F7609570958095A2
:102C200090959B01AC01BD01CF010895A29FB00119
:102C3000B39FC001A39F700D811D1124911DB29FF0
:102C4000700D811D1124911D0895EE0FFF1F881F27
:102C50008BBF0790F691E02D19940F931F93CF939C
:102C6000DF938230910510F482E090E0E0916505F9
:102C7000F091660530E020E0B0E0A0E0309799F4F4
:102C80002115310509F44AC0281B390B24303105C0
:102C9000D8F58A819B816115710589F1FB019383C8
:102CA0008283FE0111C04081518102811381481746
:102CB0005907E0F04817590799F4109761F01296F8
:102CC0000C93129713961C933296CF01DF91CF91FC
:102CD0001F910F9108950093650510936605F4CF39
:102CE0002115310551F04217530738F0A901DB01D6
:102CF0009A01BD01DF01F801C1CFEF01F9CF909337
:102D0000660580936505CDCFFE01E20FF31F819329
:102D100091932250310939832883D7CF20916305BD
:102D200030916405232B41F4209107023091080271
:102D300030936405209363052091050230910602CB
:102D40002115310541F42DB73EB74091090250914C
:102D50000A02241B350BE0916305F0916405E2172C
:102D6000F307A0F42E1B3F0B2817390778F0AC01AE
:102D70004E5F5F4F2417350748F04E0F5F1F50938B
:102D8000640540936305819391939FCFF0E0E0E069
:102D90009CCFCF93DF930097E9F0FC013297138229
:102DA0001282A0916505B0916605ED0130E020E04A
:102DB0001097A1F420813181820F931F2091630528
:102DC000309164052817390709F061C0F093640554
:102DD000E0936305DF91CF910895EA01CE17DF07F5
:102DE000E8F54A815B819E0141155105B1F7E90182
:102DF000FB83EA8349915991C40FD51FEC17FD0756
:102E000061F4808191810296840F951FE901998375
:102E10008883828193819B838A83F0E0E0E012962D
:102E20008D919C9113970097B9F52D913C91119735
:102E3000CD010296820F931F2091630530916405A6
:102E40002817390739F6309751F510926605109218
:102E50006505B0936405A0936305BCCFD383C2839B
:102E600040815181840F951FC817D90761F44E5FC7
:102E70005F4F88819981480F591F518340838A8110
:102E80009B81938382832115310509F0B0CFF093A4
:102E90006605E09365059ECFFD01DC01C0CF13827E
:102EA0001282D7CFDC0101C06D9341505040E0F752
:102EB000089513E0CDECD3E000E006C0802FFE01C2
:102EC0000E9425162196011DCE3CD10780E00807FF
:062ED000A9F7F894FFCF02
:102ED600FF010000000000670580007E181818003A
:102EE6003C203C203C007E181818003C243C382C22
:102EF600003C18183C001C20180438050115012553
:102F060001370149015D01710188019F01B801D2B4
:102F160001ED010808080808181010181818000014
:102F26001C08101808081810001C00101C00003897
:102F3600201818000818080C1800180C00080808B3
:102F46000C0808301010181800081C00080C04049F
:102F56000C08001C00001C04083800181800080C97
:102F660008000C1800180CFF818181818181FF0007
:102F76000000005405BE04EB04A1051C05FA040E6E
:102F8600050405010000010B04010005010205010D
:102F96000000010005010B04010904010000020004
:102FA60005010405010000010205010005010B04ED
:102FB60001000002000501020501000001040501EF
:102FC60000000100050100000109040100000109DB
:102FD60004010000030000010205010000010505CF
:102FE60001090501000001070501050501040501A8
:102FF60000000200050104050100000102050100B0
:1030060005010B0401000002000501020501000094
:103016000104050100000100050100000109040189
:103026000000010904010000030405010000010B72
:1030360004010005010205010000010005010B0461
:103046000109040100000200050104050100000158
:103056000205010005010B04010000020005010242
:103066000501000001040501000001000501000042
:103076000109040100000109040100000300000128
:10308600020501000001050501090501000001070F
:1030960005010505010405010000020005010405FE
:1030A600010000010205010005010B0401000002F8
:1030B60000050102050100000104050100000100F0
:1030C60005010000010904010000010904010000D6
:1030D600030405080005080205080B040800050896
:1030E6000904080804080B0408040508000508027A
:1030F60005080B0408000504040504090504090570
:10310600040805080000080000002C20000D0A0035
:00000001FF
