:100000000C94CE030C94FF030C94FF030C94FF0399
:100010000C94FF030C94FF030C94FF030C94FF0358
:100020000C94FF030C94FF030C94FF030C94FF0348
:100030000C94FF030C94250C0C94FF030C94FF0309
:100040000C94FF030C94FF030C94FF030C94FF0328
:100050000C94FF030C94FF030C94FF030C94E50C29
:100060000C94FF030C94AF0C0C94850C0C94FF03C0
:100070000C94FF030C94FF030C94FF030C94FF03F8
:100080000C94FF030C94FF030C94FF030C94FF03E8
:100090000C94FF030C94FF030C94FF030C94FF03D8
:1000A0000C94FF030C94FF030C94FF030C94FF03C8
:1000B0000C94FF030C94FF030C94FF030C94FF03B8
:1000C0000C94FF030C94FF030C94FF030C94FF03A8
:1000D0000C94FF030C94FF030C94FF030C94FF0398
:1000E0000C94FF030C9466060C94BF140C94440605
:1000F0000C9435060C944A060C945C060C940A0584
:100100000C942F0D0C943D060C942D050C9439067F
:100110000C946F060C9473050C94C0050C94540653
:100120000C946A060C9474060C9462060C944106B6
:100130000C942F060C943B050C944E060C94DD0495
:100140000C9470060C9458060C9419054602000095
:1001500000FF0800053E5B4F5B3E053E6B4F6B3E6C
:10016000051C3E7C3E1C05183C7E3C18051C577D3A
:10017000571C051C5E7F5E1C0400183C1805FFE739
:10018000C3E7FF040018241805FFE7DBE7FF05308D
:10019000483A060E05262979292605407F050507D8
:1001A00005407F05253F055A3CE73C5A057F3E1C2C
:1001B0001C0805081C1C3E7F0514227F221405FF25
:1001C000FFFFFFFF05F0F0F0F0F003FFFFFF050079
:1001D0000000FFFF050F0F0F0F0F0508047E040836
:1001E0000510207E20100508082A1C0805081C2A76
:1001F000080805AA005500AA05AA55AA55AA05305F
:10020000383E383005060E3E0E06020000015F0340
:1002100007000705147F147F1405444AFF4A32057E
:1002200063130864630536494936480107033E41B4
:10023000410341413E05082A1C2A080508083E08DA
:10024000080260E004080808080260600560100801
:100250000403053E5149453E0304027F05714949A7
:100260004946054149494936050F0808087F054FA9
:1002700049494931053E4949493005030101017F9A
:1002800005364949493605064949493E026C6C0222
:100290006CEC03081422041414141403221408052B
:1002A0000159090906053E415D594E057E090909B6
:1002B0007E057F49494936053E41414141057F411F
:1002C00041413E057F49494941057F090909010529
:1002D0003E41414979057F0808087F03417F410578
:1002E000304141413F057F08142241057F40404095
:1002F00040057F020C027F057F0408107F053E4108
:1003000041413E057F09090906053E4141617E05DF
:100310007F091929460546494949310501017F01EF
:1003200001053F4040403F051F2040201F053F4042
:1003300038403F056314081463050304780403057B
:100340006151494543037F4141050304081060039F
:1003500041417F0504020102040480808080030182
:100360000204043844447C047F4444380438444440
:1003700044043844447F043854545804047E05012E
:100380000418A4A47C047F040478017D0384857C84
:10039000047F102844017F057C04780478047C04E1
:1003A0000478043844443804FC2424180418242411
:1003B000FC047C040408045854543403047F0404EB
:1003C0003C40407C041C20407C053C4030403C04C8
:1003D0006C10106C041CA0A07C046454544C0408E1
:1003E000364141017F044141360804020102010502
:1003F0007F4141417F053E555555410538444438BC
:1004000044057C2A2A3E14057E0202060605027E69
:10041000027E02056355494163053844443C0405A6
:10042000407E201E200506027E0202086313086437
:1004300063006060052A2A2A2A2A03514A44034499
:100440004A51050000FF010303E080FF0536123624
:10045000243603020502021818021010053040FF6E
:100460000101041F01011E000000000901017F01BC
:100470007F020C027F0000000000000100017D04EB
:1004800018247E2404447E454105221C141C2205A8
:10049000012A7C2A010177044E55553903020002D6
:1004A000077E81BDA5A5817E0326292F0508142A74
:1004B0001422040808081803080808077E81BD955F
:1004C000A9817E0501010101010302050203242E19
:1004D00024031915120315150A02020104F820401D
:1004E000780506097F017F021818040080A0C00368
:1004F000121F10032629260522142A140808402F4B
:100500001008041E117C08402F10080462554C0985
:1005100015553F1008041E117C053048484D400514
:100520007815161478057814161578057A151415AB
:100530007A05781615167905781514157805781446
:10054000151478077E09097F494941059EA161215B
:1005500021057C54554644057C54564544057E553A
:10056000544546057C5554454403457E4403447E2A
:100570004503467D4603457C4505087F49413E05C8
:100580007C0A11227D0538444546380538444645E5
:1005900038053A4544453A05384645463905384513
:1005A000444538052214081422057C625A463E054B
:1005B0003C4041423C053C4042413C053C424142BA
:1005C0003C053C4140413C0502047A0502043F12CF
:1005D000120C057E49494E30043845467C043844A7
:1005E000467D043846457E043A45467D04384544F8
:1005F0007D04304A4D7A0720545438545458049C92
:10060000A2622204385556580438545659043856B4
:10061000555A043855545902017A027A0103027975
:10062000020302780204304B4B3C047A090A71043D
:1006300030494A300430484A3104304A49320432A1
:10064000494A3104394444390508082A080804385D
:10065000544C3804384142780438404279043842D6
:10066000417A043A40407A0418A0A27904FC282870
:1006700010041AA0A07A0000200023002600290000
:100680002C002F00320000010000030106010901C7
:1006900000000A0B02090C0D0E08070304010000FC
:1006A000000000000000000000000000000000004A
:1006B0000000000000000000000000001211100007
:1006C000000000000000000000000000000000002A
:1006D0000000000000000200002200250028002B7E
:1006E000002E003100340002010000050108010B5A
:1006F0000100002100240027002A002D00300033D3
:100700000001010000040107010A010505050507B4
:100710000508080808020202020A0A08080404047C
:1007200004010101010101010103030303030303A8
:1007300003040707070C0C0C0C0C0C0C0C02020237
:100740000206060606060606060B0B0B0B0B0B0B2A
:100750000B010210202008081020401020408002C9
:1007600001020108040201010204081020408080F7
:10077000402010080402018004020180402010087B
:100780000402010804020101020408102040800153
:1007900002040810204080002F0DBF1411241FBE3A
:1007A000CFEFD1E2DEBFCDBF00E00CBF14E0A0E090
:1007B000B2E0EEE5FEE200E00BBF02C007900D9252
:1007C000AE33B107D9F725E0AEE3B4E001C01D9226
:1007D000AF35B207E1F713E0CDECD3E000E006C09F
:1007E00021970109802FFE010E94E915CC3CD10719
:1007F00080E00807A9F70E94740D0C941D170C9453
:10080000000090E0FC01EF5AF84F2491855F984F6B
:10081000FC018491882399F090E0880F991FFC01D6
:10082000EF50F94FA591B491FC01E952F94F859130
:1008300094918FB7F894EC91E22BEC938FBF0895CD
:10084000829590E09C0135952795359527952373E2
:10085000880F991F880F991F8C7C282B30E0C901C5
:10086000959587958575220F331F2A7A822B0895D7
:100870008F929F92AF92BF92CF92DF92EF92FF92B0
:10088000CF93DF93982F97708695869586954091A4
:10089000450520913C05222309F455C0692F70E0DD
:1008A00020913D05222309F447C027E030E0261BB4
:1008B000370B91E001C0990F2A95EAF7841708F0E9
:1008C0007AC0609146057091470529E0829F600DCE
:1008D000711D1124E0913E0530E020E080E0A7E0AA
:1008E000B0E0C12CD12C7601C394F22FAD01421B94
:1008F000530BE11101C0A901460F571FEA014881BE
:10090000492351F04601570104C0880C991CAA1CC8
:10091000BB1CFA95D2F788292F5F3F4F283031054D
:1009200021F7DF91CF91FF90EF90DF90CF90BF90B4
:10093000AF909F908F90089521E001C0220F9A956B
:10094000EAF7922FBBCF8417B0F52091460530917E
:100950004705D9E08D9F200D311D112440913E05A2
:10096000892F90E050913D055523C1F0442331F08B
:1009700047E050E0FA01E81BF90BCF01820F931F0B
:10098000EC018881DF91CF91FF90EF90DF90CF90C5
:10099000BF90AF909F908F900C942004442331F02F
:1009A00047E050E0FA01E81BF90BCF01820F931FDB
:1009B000EC018881B6CF80E0B4CFAF92BF92CF92E6
:1009C000DF92EF92FF920F931F93CF93DF936C010F
:1009D0007B018B01040F151FEB015E01AE18BF08F0
:1009E000C017D10759F06991D601ED91FC910190A2
:1009F000F081E02DC6011995892B79F7C501DF91AA
:100A0000CF911F910F91FF90EF90DF90CF90BF900B
:100A1000AF900895FC01538D448D252F30E0842F35
:100A200090E0821B930B541710F0CF960895019716
:100A30000895FC01918D828D981761F0A28DAE0F03
:100A4000BF2FB11D5D968C91928D9F5F9F73928F8A
:100A500090E008958FEF9FEF0895FC01918D828DB6
:100A6000981731F0828DE80FF11D858D90E0089583
:100A70008FEF9FEF0895FC01918D228D892F90E0DB
:100A8000805C9F4F821B91098F73992708958CE991
:100A900094E00E943B0521E0892B09F420E0822F9D
:100AA0000895FC01A48DA80FB92FB11DA35ABF4F03
:100AB0002C91848D90E001968F739927848FA6895D
:100AC000B7892C93A089B1898C91837080648C93B1
:100AD000938D848D981306C00288F389E02D808160
:100AE0008F7D80830895EF92FF920F931F93CF9392
:100AF000DF93EC0181E0888F9B8D8C8D98131AC059
:100B0000E889F989808185FF15C09FB7F894EE893F
:100B1000FF896083E889F98980818370806480839C
:100B20009FBF81E090E0DF91CF911F910F91FF90E7
:100B3000EF900895F62E0B8D10E00F5F1F4F0F738F
:100B40001127E02E8C8D8E110CC00FB607FCFACF4A
:100B5000E889F989808185FFF5CFCE010E94510592
:100B6000F1CFEB8DEC0FFD2FF11DE35AFF4FF0821B
:100B70009FB7F8940B8FEA89FB8980818062CFCF81
:100B8000CF93DF93EC01888D8823B9F0AA89BB89C4
:100B9000E889F9898C9185FD03C0808186FD0DC0AF
:100BA0000FB607FCF7CF8C9185FFF2CF808185FFD0
:100BB000EDCFCE010E945105E9CFDF91CF9108958D
:100BC00080E090E0892B29F00E94470581110E9466
:100BD000000080E090E0892B49F080E090E0892BD4
:100BE00029F00E94000081110E94000080E090E046
:100BF000892B49F080E090E0892B29F00E940000C9
:100C000081110E94000080E090E0892B49F080E093
:100C100090E0892B29F00E94000081110C940000C3
:100C200008958150823108F05AC0E82FF0E08827FB
:100C3000E35EF94F8F4F0C94E9153D0641062F06F0
:100C4000350639066F0644064A064E06540658060F
:100C50005C06620666066F066A0670067406809178
:100C600080008F77809380000895809180008F7D31
:100C7000F9CF80918000877FF5CF84B58F7784BDD1
:100C8000089584B58F7DFBCF8091B0008F778093DE
:100C9000B00008958091B0008F7DF9CF80919000D1
:100CA0008F77809390000895809190008F7DF9CF89
:100CB00080919000877FF5CF8091A0008F778093FF
:100CC000A00008958091A0008F7DF9CF8091A000B1
:100CD000877FF5CF809120018F7780932001089541
:100CE000809120018F7DF9CF80912001877FF5CF02
:100CF0001F93CF93DF93282F30E0F901E057F94F8E
:100D00008491F901EF5AF84FD491F901E55FF84F5A
:100D1000C491CC23A9F0162F81110E941106EC2F4B
:100D2000F0E0EE0FFF1FE952F94FA591B4918FB794
:100D3000F894EC91111108C0D095DE23DC938FBF9D
:100D4000DF91CF911F910895DE2BF8CF9091000293
:100D500089130DC0E6EDF6E0E4919FEF9093000259
:100D6000E230E1F038F4EE2381F0E13089F060E028
:100D70000C947806E43049F110F1E530C1F7909118
:100D800073009D7F90937300F2CF10926E00EFCFAF
:100D900090916F009D7F90936F00E9CF90917000CC
:100DA0009D7F9093700091E09093B0009091B1007E
:100DB000987F94609093B1001092B300D8CF909137
:100DC00071009D7F90937100D2CF909172009D7FB2
:100DD00090937200CCCF90917B00977F90937B0093
:100DE0008653806480937C0080917A008064809335
:100DF0007A0080917A0086FDFCCF809178009091F6
:100E0000790008950C943804EF92FF920F931F938A
:100E1000CF93DF93809142058823A1F080919B04BA
:100E2000882361F08FB7F89490919B04913071F50D
:100E30009DB390939A049DB39DBB8FBF80E58CBDFD
:100E400081E08DBD60E0809141050E94780680912F
:100E500042058823F1F030E020E08091450590E0E4
:100E6000880F991F2817390708F03DC0E091480501
:100E7000F0914905E20FF31F80818EBD00000DB493
:100E800007FEFDCF8EB52F5F3F4FE7CF80939A04CB
:100E9000D5CFD0E0C0E08091450590E0880F991F44
:100EA000C817D90700F5E0914805F0914905EC0F06
:100EB000FD1F0081F0904005E0903F0518E0602F95
:100EC000661F6627661F8E2D0E947806000F61E060
:100ED0008F2D0E94780660E08F2D0E9478061150B9
:100EE00071F72196D8CF61E0809141050E94780684
:100EF00080914205882371F080919B04882351F0F2
:100F00009FB7F89420919B0480919A04213049F472
:100F10008DBB9FBFDF91CF911F910F91FF90EF90FD
:100F200008958FBFF7CF0F931F93CF93DF938091D7
:100F30009504482F082E000C550B18160CF049C0CC
:100F4000E0E0F1E0E41715065CF5A4E8B4E093E016
:100F500081E0882329F01E968C911E978F2781703F
:100F6000915011969111F5CF6091920420919304C4
:100F700090919404882391F070E075956795609343
:100F8000920430E03595279520939304892F90E0C3
:100F90009595879580939404EF5FD4CFE093950463
:100FA000D091920400919304C091940410919604FE
:100FB00011113AC081E00E9402078D2341F40E9482
:100FC0000207802321F491E0CC2309F444C090E08F
:100FD00042C090E09417150619F314F3209192047F
:100FE00027FD1DC08091930487FD19C08091940452
:100FF0008095881F8827881F6091930430919404FE
:10100000882379F0220F20939204862F880F8093F3
:101010009304832F880F809394049150DBCF80E05A
:10102000EBCF90939504BCCF80919904482F50E06A
:10103000212F012E000C330BBA0161507109621788
:10104000730779F48150D111C2CF0E9402078C231B
:1010500091E009F0BCCF892FDF91CF911F910F91C3
:10106000089517FDB4CF421753070CF4B0CF81E0B9
:10107000810F0E9402078D2309F0A9CF812F0E94C2
:101080000207802309F0A3CF8FEF810FDECFFC0191
:1010900001900020E9F73197AF01481B590BBC01C3
:1010A0008CE994E00C94DD048F929F92AF92BF92F2
:1010B0000F931F93CF93DF93CDB7DEB7A1970FB6F2
:1010C000F894DEBF0FBECDBF19A2423008F44AE04B
:1010D0008E010F5D1F4F842E912CB12CA12CA501E8
:1010E00094010E94B815E62FB901CA01EA30F4F460
:1010F000E05DD801EE938D01232B242B252B79F76E
:1011000090E080E0109719F0CD010E944708A19669
:101110000FB6F894DEBF0FBECDBFDF91CF911F9108
:101120000F91BF90AF909F908F900895E95CE1CFB1
:10113000CF92DF92EF92FF92CF93DF936B017C010E
:101140006DE28CE994E00E947305EC016627772735
:10115000CB016C197D098E099F094AE00E94540851
:101160008C0F9D1FDF91CF91FF90EF90DF90CF907C
:101170000895BC01990F880B990B97FD0C94980862
:101180004AE00C945408EAE3F5E0438550E0440F4C
:10119000551F70E060E0868597850C941617EF92D6
:1011A000FF920F931F93CF93DF93FF24F394D0E02C
:1011B000C0E001E010E0B9E0EB2E0E94C308980106
:1011C0000C2E02C0220F331F0A94E2F7E0E090E0F9
:1011D00080914505E817E0F5EE9DB0011124A0913E
:1011E0004605B0914705A60FB71F18964C9150E0E1
:1011F00042235323452B51F14E2F50E08150990B40
:10120000841B950B880F991FA0914805B091490543
:10121000A80FB91FFC92A0914605B0914705A60FF3
:10122000B71FAC0FBD1F6C91809145058150990B84
:10123000841B950B880F991F4091480550914905D3
:10124000840F951FDC0111966C9391E0EF5FC0CF86
:1012500091110E9404072196F394C830D10509F03A
:10126000ACCF80E099E020914505821758F4E091D9
:101270004605F0914705899FE00DF11D1124108668
:101280008F5FF1CFDF91CF911F910F91FF90EF9082
:101290000895FF920F931F93CF93DF938A309105A8
:1012A00009F461C08B01EC01F09045050E94C30870
:1012B00040E0E02F5FEF5F0DC230D10509F449C077
:1012C00088F42097E9F09E2F8BE0C130D105F1F032
:1012D0004F5F541788F7DF91CF911F910F91FF90C7
:1012E0000C940407C330D105B9F1C430D10581F79E
:1012F00091E00115110509F490E0919589E006C08F
:1013000091E00115110509F090E08CE0642F70E088
:10131000209145052150330B261B370B220F331F1D
:10132000A0914805B0914905A20FB31F8C9320915D
:1013300045052150330B261B370B220F331F6091BD
:10134000480570914905260F371FD90111969C93C6
:10135000BFCF9E2F8AE0DACF91E00115110509F485
:1013600090E08FE0D3CF81E06130710509F080E03B
:1013700080934E056130710539F4DF91CF911F9153
:101380000F91FF900C94CF08DF91CF911F910F9197
:10139000FF900895DF92EF92FF920F931F93CF93E8
:1013A000DF9399E0899F80011124F12CE12CC82F53
:1013B000D0E0DD24D394DE0CE0914605F0914705A2
:1013C000E00FF11F808590E00E2C02C09595879567
:1013D0000A94E2F780FF2DC00E94C3088091450562
:1013E0008150990B8C1B9D0B880F991F20914805EC
:1013F00030914905820F931FFC01D082E091460590
:10140000F0914705E00FF11FEE0DFF1D4081209187
:1014100045052150330B2C1B3D0B220F331F8091B0
:10142000480590914905280F391FF90141830E9411
:101430000407FFEFEF1AFF0A88E0E816F10409F04D
:10144000B8CF8091460590914705080F191FF80104
:101450001086DF91CF911F910F91FF90EF90DF9059
:1014600008957F928F929F92AF92BF92CF92DF9218
:10147000EF92FF920F931F93CF93DF938C01862FF0
:10148000902F9770F92E93E0169507959A95E1F7AE
:10149000D02FC0913C0590914505CC2309F47EC026
:1014A000C0E0091708F05DC0A9E00A9FF00111240F
:1014B00041E050E060E070E04A015B010F2C04C0A5
:1014C000880C991CAA1CBB1C0A94D2F7782C809417
:1014D00027E030E02F19310904C0440F551F661F63
:1014E000771F2A95D2F7C42F942F909550E040E0B3
:1014F000A82EB12C67E070E09A01E0904605F090CC
:101500004705EE0EFF1E80913E0590903D0565015A
:10151000042E02C0D594C7940A94E2F7C0FE30C0EE
:10152000882319F09B01241B350B2E0D3F1DD9017B
:101530008C91F72C9110FC2E8F29D9018C934F5F41
:101540005F4F48305105C1F680914605909147059F
:10155000E80FF91F8FEF8087C0914E05C1115FC062
:10156000C1E08C2FDF91CF911F910F91FF90EF90F1
:10157000DF90CF90BF90AF909F908F907F90089515
:10158000882319F09B01241B350B2E0D3F1DD9011B
:101590008C91F82C9110F92E8F21CFCF091708F7D5
:1015A00090913D0591110E942004B9E00B9FA0018C
:1015B0001124E0914605F0914705E40FF51F6F2DCA
:1015C00070E090913E0527E030E0261B370B91112B
:1015D00001C09B01E20FF31F8083E0914605F0916B
:1015E0004705E40FF51F208580913E05882389F08B
:1015F00047E050E0461B570B81E090E0A0E0B0E0F0
:1016000004C0880F991FAA1FBB1F4A95D2F7822BCF
:10161000A2CF81E001C0880FFA94EAF7F8CF809159
:101620004505D81708F09CCF802F0E94CA0999CF92
:10163000CF93DF93D0919904C0E0DC17A9F08C2FF1
:101640000E9402078F3F71F460E08C2F90E00E94AF
:10165000310A83E090E09093890480938804DF91BD
:10166000CF910895CF5FE9CF10928904109288043A
:10167000F6CFFF920F931F93CF93DF9300D000D04C
:10168000CDB7DEB7082FF62E172F81E0800F0E940E
:1016900038048983802F0E9438048A838FEF800F5B
:1016A0000E9438048B839E012F5F3F4FEF2DF12F57
:1016B000BE016C5F7F4FAF014D5F5F4FD9019D91C0
:1016C0009D01819180958923DB018D93BD01E417F4
:1016D000F507A1F710E06C81C80101960E94310A5C
:1016E0006D81C8010E94310A6E81C801019726965A
:1016F0000FB6F894DEBF0FBECDBFDF91CF911F9123
:101700000F91FF900C94310AEF92FF921F93CF93A9
:10171000DF9300D000D0CDB7DEB7182F7B0181E07A
:10172000810F0E9438048983812F0E9438048A83A4
:101730008FEF810F0E9438048B83F7019E012F5F8A
:101740003F4FBE016C5F7F4FA7014D5F5F4F81919F
:10175000D9019D919D01892BDB018D93BD01E4177A
:10176000F507A9F7E12EF12C6C81C70101960E94C3
:10177000310A6D81C7010E94310A112381F06E8107
:10178000C701019726960FB6F894DEBF0FBECDBFF6
:10179000DF91CF911F91FF90EF900C94310A269624
:1017A0000FB6F894DEBF0FBECDBFDF91CF911F9172
:1017B000FF90EF9008950F931F93CF93DF930BE269
:1017C00012E0D0E0C0E0F80162918F01CE010E94EA
:1017D000310A2196C032D105B1F7DF91CF911F9127
:1017E0000F91089590E069E058E04FEF969F9001C7
:1017F0001124A0914605B0914705A20FB31FFD012A
:10180000752F11927A95E9F7E0914605F091470519
:10181000E20FF31F40879F5F891740F780914E05C5
:1018200081110C94CF08089567E070E082E090E0A9
:101830000E94490961E070E08AE090E00E94490955
:101840008091450581500C94F20B1F920F920FB6B8
:101850000F9211240BB60F922F933F934F935F93E8
:101860006F937F938F939F93AF93BF93EF93FF9368
:101870008091580490915904A0915A04B0915B044E
:10188000892B8A2B8B2BE1F190914704E09148043E
:10189000F091490480818927808380915804909138
:1018A0005904A0915A04B0915B04181619061A063F
:1018B0001B069CF48091580490915904A0915A04FD
:1018C000B0915B040197A109B109809358049093EA
:1018D0005904A0935A04B0935B04FF91EF91BF9118
:1018E000AF919F918F917F916F915F914F913F91B8
:1018F0002F910F900BBE0F900FBE0F901F90189559
:10190000809100020E94A606E8CF1F920F920FB6A8
:101910000F9211240BB60F922F933F934F935F9327
:101920006F937F938F939F93AF93BF93EF93FF93A7
:101930008CE994E00E945105FF91EF91BF91AF9126
:101940009F918F917F916F915F914F913F912F91D7
:101950000F900BBE0F900FBE0F901F9018951F9207
:101960000F920FB60F9211240BB60F922F938F93F5
:101970009F93EF93FF93E091AC04F091AD048081CD
:10198000E091B204F091B30482FD1DC0908180917A
:10199000B5048F5F8F732091B604821741F0E091F8
:1019A000B504F0E0E456FB4F958F8093B504FF91AA
:1019B000EF919F918F912F910F900BBE0F900FBEC3
:1019C0000F901F9018958081F2CF1F920F920FB643
:1019D0000F9211242F933F938F939F93AF93BF93B5
:1019E0008091680490916904A0916A04B0916B049D
:1019F0003091420423E0230F2D3758F50196A11DA5
:101A0000B11D209342048093680490936904A093CD
:101A10006A04B0936B0480913E0490913F04A091BE
:101A20004004B09141040196A11DB11D80933E0474
:101A300090933F04A0934004B0934104BF91AF91B1
:101A40009F918F913F912F910F900FBE0F901F90FC
:101A5000189526E8230F0296A11DB11DD2CFECE9FF
:101A6000F4E01382128288EE93E0A0E0B0E0848379
:101A70009583A683B78383EA92E09183808385EC84
:101A800090E09587848784EC90E09787868780EC48
:101A900090E0918B808B81EC90E0938B828B82EC39
:101AA00090E0958B848B86EC90E0978B868B118EE3
:101AB000128E138E148EEAE3F5E08BE085838DE0C1
:101AC00086838AE08783108689E395E09287818701
:101AD00084E0838781E0848B21E030E031832083C0
:101AE0008283138214820895CF93DF9300D01F92D4
:101AF0001F92CDB7DEB7789484B5826084BD84B57B
:101B0000816084BD85B5826085BD85B5816085BDF8
:101B100080916E00816080936E00109281008091B0
:101B20008100826080938100809181008160809338
:101B30008100809180008160809380008091B1005D
:101B400084608093B1008091B00081608093B00088
:101B500080919100826080939100809191008160DA
:101B6000809391008091900081608093900080919B
:101B7000A10082608093A1008091A1008160809388
:101B8000A1008091A00081608093A000809121013C
:101B900082608093210180912101816080932101E5
:101BA0008091200181608093200180917A0084607F
:101BB00080937A0080917A00826080937A0080918D
:101BC0007A00816080937A0080917A0080688093A7
:101BD0007A001092C100E091AC04F091AD0492E063
:101BE0009083E091A804F091A9041082E091AA04E6
:101BF000F091AB0480E180831092B404E091B004D2
:101C0000F091B10486E08083E091AE04F091AF04DE
:101C1000808180618083E091AE04F091AF04808187
:101C200088608083E091AE04F091AF048081806889
:101C30008083E091AE04F091AF0480818F7D80833A
:101C400019821A821B822091B1023091B202409116
:101C5000B3022B833C834D8328E030E03093710442
:101C60002093700421EB32E03093730420937204CC
:101C70009093750485E0FE013196AAE7B4E00190E7
:101C80000D928A95E1F78CE8809374048BE690E0DE
:101C9000A0E0B0E08093760490937704A09378045A
:101CA000B093790488E00E94010488EC90E0A0E001
:101CB000B0E08093840490938504A0938604B0934D
:101CC0008704109289041092880488E18093990413
:101CD00087E080938A0480914205882309F4D6C066
:101CE0001FB7F89480914304811124C0E0E4F7E029
:101CF0008491E6E8F7E09491E82FF0E0EE0FFF1F03
:101D0000EF50F94FA591B491EC91E92321F461E0F2
:101D100085E30E94780685E30E9401048CB580610A
:101D20008CBD8CB580648CBD84E30E94010483E388
:101D30000E940104809143048F5F809343041FBF7E
:101D4000809141050E94010461E0809141050E945B
:101D5000780610924B0510924A0510924D0510928C
:101D60004C051091450529E0129FC00111240E94E5
:101D7000F1159093470580934605812F90E0880FD9
:101D8000991F0E94F1159093490580934805809111
:101D90005005909151058C54914009F49AC0ECE49F
:101DA000F1E0F0935105E09350051092520588E060
:101DB0008093530510925605109255058FEF90E0D1
:101DC000909358058093570510925A051092590523
:101DD000E491E63409F033C0EDE4F1E0E491E13060
:101DE00009F45DC082E090E0E23029F5EEE4F1E034
:101DF0008491EFE4F1E0E49190E0982F88278E0F32
:101E0000911D9093560580935505E0E5F1E084918E
:101E1000E1E5F1E0E49190E0982F88278E0F911D85
:101E20009093580580935705E2E5F1E0E491E09343
:101E3000530587E090E090935A0580935905C09030
:101E40005905D0905A05F12CE12C2091550530917F
:101E50005605409157055091580560E042175307C9
:101E600008F435C0F601E45BFE4F8491681708F46E
:101E7000682F90E0B0E0A0E00196A11DB11DC80E52
:101E8000D91EEA1EFB1E2F5F3F4FE8CF80913F0512
:101E90000E940104809140050E94010451CFEEE4AC
:101EA000F1E0E491F0E0F0935605E0935505EFE49E
:101EB000F1E0E491F0E0F0935805E0935705E0E598
:101EC000F1E0E491E093530585E090E0B4CF6093B6
:101ED000540570E060E083E090E00E94490967E00B
:101EE00070E081E090E00E94490967E070E082E0E4
:101EF00090E00E94490970E060E084E090E00E9478
:101F000049098091450581500E94F20B70E060E024
:101F100090E080E00E9449090E94140C0E94DB0BB3
:101F200022242394312C88248A94982C5401809163
:101F30007F04909180049C0197FF04C022273327DF
:101F4000281B390B2430310544F097FD01969595F7
:101F500087959093800480937F0486E30E94EB062C
:101F600021E030E0873292406CF486E30E94EB0679
:101F700021E030E08A3D914014F030E020E03195DE
:101F80002195310980917F0490918004280F391F99
:101F90003093800420937F0420918104211108C094
:101FA00087E30E94EB0621E0893592400CF420E0A3
:101FB000209381048091820481111CC0E4E9F6E041
:101FC0008491E5E5F7E00491EFE0F7E01491112347
:101FD00009F481C181110E941106E12FF0E0EE0F9A
:101FE000FF1FEA58F94FA591B4918C91082381E025
:101FF00009F080E08093820490918304992309F48E
:1020000098C42FB7F8948091680490916904A091C6
:102010006A04B0916B042FBF409164045091650431
:1020200060916604709167048C019D01041B150B7F
:10203000260B370B40917604509177046091780419
:1020400070917904041715072607370708F4F3C0C1
:102050008093640490936504A0936604B09367042E
:1020600080917A0481112DC3E0917204F091730480
:1020700080917B049F0143E0849F200D311D11243A
:10208000D90112968C911297882309F426C1AC913C
:10209000F901218180937A048091700490917104F8
:1020A000222309F40BC3E6EDF6E0B0E0AA0FBB1F54
:1020B000A55DBD4F2450CD90DC9002C0CC0CDD1C42
:1020C0002A95E2F72091000228130DC1149117FD03
:1020D000ADC00E940104112319F0123009F048C26A
:1020E000F12CE12C60E072E18AE790E0A701960113
:1020F0000E94861529013A01BA01A90141505109EE
:10210000610971094F3F51056105710509F00CF432
:1021100017C260E472E48FE090E0A70196010E948C
:102120008615BA01A901415051096109710912309E
:1021300009F0C3C182E04F3F51056105710509F007
:102140000CF463C060E970ED83E090E0A7019601B4
:102150000E948615BA01A90141505109610971090E
:1021600083E04F3F51056105710509F00CF44DC046
:1021700068E478EE81E090E0A70196010E94861560
:10218000BA01A901415051096109710984E04F3F29
:10219000510561057105C9F1C4F164E274EF80E095
:1021A00090E0A70196010E948615BA01A90141504D
:1021B00051096109710985E04F3F510561057105BC
:1021C00021F118F162E17AE780E090E0A701960141
:1021D0000E948615BA01A90141505109610971098E
:1021E00086E04F3F51056105710579F070F0B3014C
:1021F000A2018AE075956795579547958A95D1F71D
:10220000415051096109710987E09091B100987FAF
:10221000892B8093B100123009F440C20CF037C210
:10222000112309F494C1113009F4D0C180917B04C9
:102230008F5F80937B042FB7F8948091680490910E
:102240006904A0916A04B0916B042FBF40916C04A3
:1022500050916D0460916E0470916F048C019D012A
:10226000041B150B260B370B4091840450918504F9
:1022700060918604709187040417150726073707B5
:1022800008F453C380936C0490936D04A0936E0480
:10229000B0936F04809188049091890481309105F6
:1022A00009F440C208F4CCC2039709F40EC20E949C
:1022B000180B2091880430918904B901032E000C79
:1022C000880B990B97FF53C30E9498088AE394E008
:1022D0000E9447082AC381E08DCE10927B04A08122
:1022E00021818281D7CE2F3F09F0A0CF80930002B9
:1022F0001491212F1F3F09F499CF123009F472C0B5
:1023000050F4112389F1113009F44AC027FD8ECF12
:102310000E940104E2CE143009F4ADC008F488C074
:102320001530A1F710922001109221012091210176
:102330002860209321012091210121602093210117
:102340009C013327F901E55FF84FE491F0E0EE0FCF
:10235000FF1FE952F94F45915491F901EF5AF84F97
:10236000E491E0934404B5CE14BC15BC24B52260BE
:1023700024BD25B5216025BD9C013327F901E55F0A
:10238000F84FE491F0E0EE0FFF1FE952F94F45914D
:102390005491F901EF5AF84FE491E0934B0499CE30
:1023A000109280001092810020918100286020937B
:1023B0008100209181002160209381009C013327BE
:1023C000F901E55FF84FE491F0E0EE0FFF1FE952ED
:1023D000F94F45915491F901EF5AF84FE491E09388
:1023E0004A0477CE1092B0001092B1002091B00054
:1023F00022602093B0002091B10021602093B100B1
:102400009C013327F901E55FF84FE491F0E0EE0F0E
:10241000FF1FE952F94F459154915093490440935D
:102420004804F901EF5AF84FE491E093470451CE84
:1024300010929000109291002091910028602093BA
:102440009100209191002160209391009C013327FD
:10245000F901E55FF84FE491F0E0EE0FFF1FE9525C
:10246000F94F45915491F901EF5AF84FE491E093F7
:10247000460413E02ECE1092A0001092A1002091ED
:10248000A10028602093A1002091A1002160209349
:10249000A1009C013327F901E55FF84FE491F0E0DA
:1024A000EE0FFF1FE952F94F45915491F901EF5A90
:1024B000F84FE491E09345040CCE4F3F5105610580
:1024C000710509F00CF452C068E478EE81E090E008
:1024D000A70196010E948615BA01A9014150510930
:1024E0006109710984E0111167CE83E04F3F510506
:1024F0006105710541F13CF162E17AE780E090E02D
:10250000A70196010E948615BA01A90141505109FF
:102510006109710984E04F3F51056105710599F02A
:1025200090F0B301A2019AE075956795579547958C
:102530009A95D1F7415051096109710985E003C0AD
:1025400081E0111162CE95B5987F892B85BD47BD7D
:102550008092600490926104A0926204B09263043D
:1025600080916E00826080936E0060CE82E0E9CF41
:10257000F12CE12C60E072E18AE790E0A70196017E
:102580000E948615BA01A9014150510961097109DA
:1025900091E041155105F1E06F0771057CF068E4A9
:1025A00078EE81E090E0A70196010E948615BA01BD
:1025B000A901415051096109710993E01130C1F439
:1025C00080918100887F892B8093810050938900BE
:1025D0004093880080925C0490925D04A0925E0417
:1025E000B0925F0480916F00826080936F001ECE76
:1025F0001330C1F480919100887F892B80939100E2
:1026000050939900409398008092540490925504FE
:10261000A0925604B092570480917100826080931A
:10262000710004CE1430C1F48091A100887F892B01
:102630008093A1005093A9004093A8008092500479
:1026400090925104A0925204B0925304809172006F
:10265000826080937200EACD153009F0DCCD809164
:102660002101887F892B8093210150932901409378
:10267000280180924C0490924D04A0924E04B09296
:102680004F0480917300826080937300CFCD14302B
:1026900089F20CF4B5CF153041F3C8CD4093B300A7
:1026A0008092580490925904A0925A04B0925B040C
:1026B00080917000826080937000B8CD0E94A60661
:1026C000B5CD815080937A04B6CD82E090E09093AE
:1026D000890480938804D0909904E12CDE1409F4D5
:1026E00042C18E2D0E94020791E09E0D811116C0FD
:1026F0000D2D10E0CC24C394CE0CF12CC701019613
:102700008017910769F08C2D0E943804682FC7014B
:102710000E94310AEC2CCD1468F3CBCDE92EDECF2C
:1027200080E0F4CF00917F04109180041092800427
:1027300010927F04E090810410928104F090820452
:1027400010928204C8010E94B90887E394E00E94B5
:1027500047088E2D90E00E94B90887E394E00E941C
:1027600047088F2D90E00E94B90887E394E00E940B
:102770004708809195048F5F101611062CF0012BED
:1027800029F080919504815080939504809196045E
:1027900092E0E11001C091E0891B80939604FF2034
:1027A00031F0809197048F5F83708093970420911C
:1027B0009704E09198048E2F90E0FC01EE0FFF1F2C
:1027C000E80FF91F35E1239FE00DF11D1124ED5BAA
:1027D000FD4F808180939204818180939304828154
:1027E000809394046BE874E080918F040E94390B0D
:1027F0000E949307882381F087E0E2E9F4E0ABE8E8
:10280000B4E001900D928A95E1F76BE874E0809155
:102810008F040E94840B4DCDE11002C0FF2049F0CF
:10282000809196048F5F809396040E949307811194
:10283000E3CF82E090E09093890480938804E5CF11
:1028400060918A04673009F452C043E0649FB0018C
:1028500011246D5B7D4F8BE10E94390B80918A04BE
:10286000809398040E942E1527E030E040E050E06D
:102870000E94861560938A0483E0689FB00111244A
:102880006D5B7D4F8BE10E94840B10929704109238
:102890009504809199048250809396040E94930736
:1028A000811130C010928304809170040E94A606AA
:1028B00010927A0410927B0410928904109288047A
:1028C00087E080938A04EBE8F4E0DF01282F1D9273
:1028D0002A95E9F7E2E9F4E0DF011D928A95E9F72C
:1028E0000E94140C0E94DB0B0E94E00520CB0E948A
:1028F0002E1527E030E040E050E00E9486156093FE
:102900009804B0CF87E0E2E9F4E0ABE8B4E00190EE
:102910000D928A95E1F76BE874E080918F040E9434
:10292000840B309289042092880481E08093830490
:10293000DBCF10928204809383048823A9F20E9443
:10294000140C27E9E22E22E0F22E0FE110E0F7014D
:1029500061917F01C8010E94310A015011090731BC
:102960001105A9F7C1CF2091880430918904B901DC
:10297000330F880B990B4AE00E945408A7CC809132
:102980004205882399F09FB7F894809143048823E7
:1029900019F081508093430480914304811105C054
:1029A0008CB58F7B8CBD10929B049FBF8091460598
:1029B000909147050E948D16809148059091490598
:1029C0000C948D168F929F92AF92BF92CF92DF920E
:1029D000EF92FF92CF93DF93EC01688179818A8136
:1029E0009B81611571058105910521F464E279ED02
:1029F0008BE597E02DE133EF41E050E00E94861532
:102A000049015A019B01AC01A7EAB1E40E94A51556
:102A10006B017C01ACEEB4EFA50194010E94B315EB
:102A2000C60ED71EE81EF91EF7FE06C081E0C81AC2
:102A3000D108E10880E8F80AC882D982EA82FB82DC
:102A4000C701B6019F77DF91CF91FF90EF90DF90A4
:102A5000CF90BF90AF909F908F9008958F929F924C
:102A6000AF92BF92CF92DF92EF92FF9260910102FC
:102A70007091020280910302909104026115710528
:102A80008105910521F464E279ED8BE597E02DE174
:102A900033EF41E050E00E94861549015A019B0145
:102AA000AC01A7EAB1E40E94A5156B017C01ACEE74
:102AB000B4EFA50194010E94B315C60ED71EE81EFF
:102AC000F91EF7FE06C081E0C81AD108E10880E8C7
:102AD000F80AC0920102D0920202E0920302F09240
:102AE0000402C701B6019F77FF90EF90DF90CF906F
:102AF000BF90AF909F908F90089560930102709364
:102B0000020280930302909304020895052E97FB1E
:102B10001EF400940E949D1557FD07D00E94B81521
:102B200007FC03D04EF40C949D15509540953095BC
:102B300021953F4F4F4F5F4F089590958095709529
:102B400061957F4F8F4F9F4F08950E94DA15A59F83
:102B5000900DB49F900DA49F800D911D1124089598
:102B6000B7FF0C94A5150E94A515821B930B089521
:102B7000A1E21A2EAA1BBB1BFD010DC0AA1FBB1F81
:102B8000EE1FFF1FA217B307E407F50720F0A21BF3
:102B9000B30BE40BF50B661F771F881F991F1A9460
:102BA00069F760957095809590959B01AC01BD018A
:102BB000CF010895A29FB001B39FC001A39F700DE4
:102BC000811D1124911DB29F700D811D1124911D35
:102BD0000895EE0FFF1F881F8BBF0790F691E02D21
:102BE00019940F931F93CF93DF938230910510F4C4
:102BF00082E090E0E0915D05F0915E0530E020E03C
:102C0000B0E0A0E0309799F42115310509F44AC0ED
:102C1000281B390B24303105D8F58A819B81611539
:102C2000710589F1FB0193838283FE0111C040810C
:102C300051810281138148175907E0F0481759075D
:102C400099F4109761F012960C93129713961C93B7
:102C50003296CF01DF91CF911F910F91089500938C
:102C60005D0510935E05F4CF2115310551F0421733
:102C7000530738F0A901DB019A01BD01DF01F8011A
:102C8000C1CFEF01F9CF90935E0580935D05CDCF65
:102C9000FE01E20FF31F8193919322503109398392
:102CA0002883D7CF20915B0530915C05232B41F41D
:102CB000209107023091080230935C0520935B0558
:102CC00020910502309106022115310541F42DB7FE
:102CD0003EB74091090250910A02241B350BE09146
:102CE0005B05F0915C05E217F307A0F42E1B3F0B88
:102CF0002817390778F0AC014E5F5F4F241735076E
:102D000048F04E0F5F1F50935C0540935B05819325
:102D100091939FCFF0E0E0E09CCFCF93DF930097BB
:102D2000E9F0FC01329713821282A0915D05B09107
:102D30005E05ED0130E020E01097A1F420813181A3
:102D4000820F931F20915B0530915C05281739078E
:102D500009F061C0F0935C05E0935B05DF91CF91D2
:102D60000895EA01CE17DF07E8F54A815B819E01ED
:102D700041155105B1F7E901FB83EA834991599166
:102D8000C40FD51FEC17FD0761F480819181029675
:102D9000840F951FE90199838883828193819B83A6
:102DA0008A83F0E0E0E012968D919C911397009752
:102DB000B9F52D913C911197CD010296820F931F89
:102DC00020915B0530915C052817390739F630975B
:102DD00051F510925E0510925D05B0935C05A093CD
:102DE0005B05BCCFD383C28340815181840F951F83
:102DF000C817D90761F44E5F5F4F88819981480FEA
:102E0000591F518340838A819B819383828321153B
:102E1000310509F0B0CFF0935E05E0935D059ECFDC
:102E2000FD01DC01C0CF13821282D7CFDC0101C0CB
:102E30006D9341505040E0F7089513E0CDECD3E09E
:102E400000E006C0802FFE010E94E9152196011DB9
:0E2E5000CE3CD10780E00807A9F7F894FFCF29
:102E5E00FF0100000000005F058000702020007060
:102E6E0040704070007020200070507060500070F4
:102E7E002070007040207000000000050115012533
:102E8E0001370149015D01710188019F01B801D22D
:102E9E0001ED01080808080818101018181800008D
:102EAE001C08101808081810001C00101C00003810
:102EBE00201818000818080C1800180C000808082C
:102ECE000C0808301010181800081C00080C040418
:102EDE000C08001C00001C04083800181800080C10
:102EEE0008000C1800180CFF818181818181FF0080
:102EFE000000007305DD040A05C0053B0519052D0C
:102F0E00050405010000010B040100050102050185
:102F1E000000010005010B0401090401000002007C
:102F2E0005010405010000010205010005010B0465
:102F3E000100000200050102050100000104050167
:102F4E000000010005010000010904010000010953
:102F5E000401000003000001020501000001050547
:102F6E000109050100000107050105050104050120
:102F7E000000020005010405010000010205010028
:102F8E0005010B040100000200050102050100000D
:102F9E000104050100000100050100000109040102
:102FAE000000010904010000030405010000010BEB
:102FBE0004010005010205010000010005010B04DA
:102FCE0001090401000002000501040501000001D1
:102FDE000205010005010B040100000200050102BB
:102FEE0005010000010405010000010005010000BB
:102FFE0001090401000001090401000003000001A1
:10300E000205010000010505010905010000010787
:10301E000501050501040501000002000501040576
:10302E00010000010205010005010B040100000270
:10303E000005010205010000010405010000010068
:10304E00050100000109040100000109040100004E
:10305E00030405080005080205080B04080005080E
:10306E000904080804080B040804050800050802F2
:10307E0005080B04080005040405040905040905E8
:0E308E00040805100000002C20000D0A0000B0
:00000001FF
