:100000000C94CE030C94FF030C94FF030C94FF0399
:100010000C94FF030C94FF030C94FF030C94FF0358
:100020000C94FF030C94FF030C94FF030C94FF0348
:100030000C94FF030C94400C0C94FF030C94FF03EE
:100040000C94FF030C94FF030C94FF030C94FF0328
:100050000C94FF030C94FF030C94FF030C94000D0D
:100060000C94FF030C94CA0C0C94A00C0C94FF038A
:100070000C94FF030C94FF030C94FF030C94FF03F8
:100080000C94FF030C94FF030C94FF030C94FF03E8
:100090000C94FF030C94FF030C94FF030C94FF03D8
:1000A0000C94FF030C94FF030C94FF030C94FF03C8
:1000B0000C94FF030C94FF030C94FF030C94FF03B8
:1000C0000C94FF030C94FF030C94FF030C94FF03A8
:1000D0000C94FF030C94FF030C94FF030C94FF0398
:1000E0000C94FF030C9435060C9444060C944A06B9
:1000F0000C943D060C942D050C946F060C9462062E
:100100000C94DD040C9441060C944E060C94580695
:100110000C9419050C9466060C9474060C94540601
:100120000C943B050C945C060C94C0050C94DC14F8
:100130000C940A050C9439060C942F060C944A0D65
:100140000C9473050C9470060C946A064602000029
:1001500000FF0800053E5B4F5B3E053E6B4F6B3E6C
:10016000051C3E7C3E1C05183C7E3C18051C577D3A
:10017000571C051C5E7F5E1C0400183C1805FFE739
:10018000C3E7FF040018241805FFE7DBE7FF05308D
:10019000483A060E05262979292605407F050507D8
:1001A00005407F05253F055A3CE73C5A057F3E1C2C
:1001B0001C0805081C1C3E7F0514227F221405FF25
:1001C000FFFFFFFF05F0F0F0F0F003FFFFFF050079
:1001D0000000FFFF050F0F0F0F0F0508047E040836
:1001E0000510207E20100508082A1C0805081C2A76
:1001F000080805AA005500AA05AA55AA55AA05305F
:10020000383E383005060E3E0E06020000015F0340
:1002100007000705147F147F1405444AFF4A32057E
:1002200063130864630536494936480107033E41B4
:10023000410341413E05082A1C2A080508083E08DA
:10024000080260E004080808080260600560100801
:100250000403053E5149453E0304027F05714949A7
:100260004946054149494936050F0808087F054FA9
:1002700049494931053E4949493005030101017F9A
:1002800005364949493605064949493E026C6C0222
:100290006CEC03081422041414141403221408052B
:1002A0000159090906053E415D594E057E090909B6
:1002B0007E057F49494936053E41414141057F411F
:1002C00041413E057F49494941057F090909010529
:1002D0003E41414979057F0808087F03417F410578
:1002E000304141413F057F08142241057F40404095
:1002F00040057F020C027F057F0408107F053E4108
:1003000041413E057F09090906053E4141617E05DF
:100310007F091929460546494949310501017F01EF
:1003200001053F4040403F051F2040201F053F4042
:1003300038403F056314081463050304780403057B
:100340006151494543037F4141050304081060039F
:1003500041417F0504020102040480808080030182
:100360000204043844447C047F4444380438444440
:1003700044043844447F043854545804047E05012E
:100380000418A4A47C047F040478017D0384857C84
:10039000047F102844017F057C04780478047C04E1
:1003A0000478043844443804FC2424180418242411
:1003B000FC047C040408045854543403047F0404EB
:1003C0003C40407C041C20407C053C4030403C04C8
:1003D0006C10106C041CA0A07C046454544C0408E1
:1003E000364141017F044141360804020102010502
:1003F0007F4141417F053E555555410538444438BC
:1004000044057C2A2A3E14057E0202060605027E69
:10041000027E02056355494163053844443C0405A6
:10042000407E201E200506027E0202086313086437
:1004300063006060052A2A2A2A2A03514A44034499
:100440004A51050000FF010303E080FF0536123624
:10045000243603020502021818021010053040FF6E
:100460000101041F01011E000000000901017F01BC
:100470007F020C027F0000000000000100017D04EB
:1004800018247E2404447E454105221C141C2205A8
:10049000012A7C2A010177044E55553903020002D6
:1004A000077E81BDA5A5817E0326292F0508142A74
:1004B0001422040808081803080808077E81BD955F
:1004C000A9817E0501010101010302050203242E19
:1004D00024031915120315150A02020104F820401D
:1004E000780506097F017F021818040080A0C00368
:1004F000121F10032629260522142A140808402F4B
:100500001008041E117C08402F10080462554C0985
:1005100015553F1008041E117C053048484D400514
:100520007815161478057814161578057A151415AB
:100530007A05781615167905781514157805781446
:10054000151478077E09097F494941059EA161215B
:1005500021057C54554644057C54564544057E553A
:10056000544546057C5554454403457E4403447E2A
:100570004503467D4603457C4505087F49413E05C8
:100580007C0A11227D0538444546380538444645E5
:1005900038053A4544453A05384645463905384513
:1005A000444538052214081422057C625A463E054B
:1005B0003C4041423C053C4042413C053C424142BA
:1005C0003C053C4140413C0502047A0502043F12CF
:1005D000120C057E49494E30043845467C043844A7
:1005E000467D043846457E043A45467D04384544F8
:1005F0007D04304A4D7A0720545438545458049C92
:10060000A2622204385556580438545659043856B4
:10061000555A043855545902017A027A0103027975
:10062000020302780204304B4B3C047A090A71043D
:1006300030494A300430484A3104304A49320432A1
:10064000494A3104394444390508082A080804385D
:10065000544C3804384142780438404279043842D6
:10066000417A043A40407A0418A0A27904FC282870
:1006700010041AA0A07A0000200023002600290000
:100680002C002F00320000010000030106010901C7
:1006900000000A0B02090C0D0E08070304010000FC
:1006A000000000000000000000000000000000004A
:1006B0000000000000000000000000001211100007
:1006C000000000000000000000000000000000002A
:1006D0000000000000000200002200250028002B7E
:1006E000002E003100340002010000050108010B5A
:1006F0000100002100240027002A002D00300033D3
:100700000001010000040107010A010505050507B4
:100710000508080808020202020A0A08080404047C
:1007200004010101010101010103030303030303A8
:1007300003040707070C0C0C0C0C0C0C0C02020237
:100740000206060606060606060B0B0B0B0B0B0B2A
:100750000B010210202008081020401020408002C9
:1007600001020108040201010204081020408080F7
:10077000402010080402018004020180402010087B
:100780000402010804020101020408102040800153
:1007900002040810204080004A0DDC1411241FBE02
:1007A000CFEFD1E2DEBFCDBF00E00CBF14E0A0E090
:1007B000B2E0E8E9FEE200E00BBF02C007900D9254
:1007C000A435B107D9F725E0A4E5B4E001C01D9236
:1007D000A537B207E1F713E0CDECD3E000E006C0A7
:1007E00021970109802FFE010E940616CC3CD107FB
:1007F00080E00807A9F70E948F0D0C943A170C941B
:10080000000090E0FC01EF5AF84F2491855F984F6B
:10081000FC018491882399F090E0880F991FFC01D6
:10082000EF50F94FA591B491FC01E952F94F859130
:1008300094918FB7F894EC91E22BEC938FBF0895CD
:10084000829590E09C0135952795359527952373E2
:10085000880F991F880F991F8C7C282B30E0C901C5
:10086000959587958575220F331F2A7A822B0895D7
:100870008F929F92AF92BF92CF92DF92EF92FF92B0
:10088000CF93DF93982F97708695869586954091A4
:100890005B0520915205222309F455C0692F70E0B1
:1008A00020915305222309F447C027E030E0261B9E
:1008B000370B91E001C0990F2A95EAF7841708F0E9
:1008C0007AC060915C0570915D0529E0829F600DA2
:1008D000711D1124E091540530E020E080E0A7E094
:1008E000B0E0C12CD12C7601C394F22FAD01421B94
:1008F000530BE11101C0A901460F571FEA014881BE
:10090000492351F04601570104C0880C991CAA1CC8
:10091000BB1CFA95D2F788292F5F3F4F283031054D
:1009200021F7DF91CF91FF90EF90DF90CF90BF90B4
:10093000AF909F908F90089521E001C0220F9A956B
:10094000EAF7922FBBCF8417B0F520915C05309168
:100950005D05D9E08D9F200D311D11244091540576
:10096000892F90E0509153055523C1F0442331F075
:1009700047E050E0FA01E81BF90BCF01820F931F0B
:10098000EC018881DF91CF91FF90EF90DF90CF90C5
:10099000BF90AF909F908F900C942004442331F02F
:1009A00047E050E0FA01E81BF90BCF01820F931FDB
:1009B000EC018881B6CF80E0B4CFAF92BF92CF92E6
:1009C000DF92EF92FF920F931F93CF93DF936C010F
:1009D0007B018B01040F151FEB015E01AE18BF08F0
:1009E000C017D10759F06991D601ED91FC910190A2
:1009F000F081E02DC6011995892B79F7C501DF91AA
:100A0000CF911F910F91FF90EF90DF90CF90BF900B
:100A1000AF900895FC01538D448D252F30E0842F35
:100A200090E0821B930B541710F0CF960895019716
:100A30000895FC01918D828D981761F0A28DAE0F03
:100A4000BF2FB11D5D968C91928D9F5F9F73928F8A
:100A500090E008958FEF9FEF0895FC01918D828DB6
:100A6000981731F0828DE80FF11D858D90E0089583
:100A70008FEF9FEF0895FC01918D228D892F90E0DB
:100A8000805C9F4F821B91098F739927089582EB99
:100A900094E00E943B0521E0892B09F420E0822F9D
:100AA0000895FC01A48DA80FB92FB11DA35ABF4F03
:100AB0002C91848D90E001968F739927848FA6895D
:100AC000B7892C93A089B1898C91837080648C93B1
:100AD000938D848D981306C00288F389E02D808160
:100AE0008F7D80830895EF92FF920F931F93CF9392
:100AF000DF93EC0181E0888F9B8D8C8D98131AC059
:100B0000E889F989808185FF15C09FB7F894EE893F
:100B1000FF896083E889F98980818370806480839C
:100B20009FBF81E090E0DF91CF911F910F91FF90E7
:100B3000EF900895F62E0B8D10E00F5F1F4F0F738F
:100B40001127E02E8C8D8E110CC00FB607FCFACF4A
:100B5000E889F989808185FFF5CFCE010E94510592
:100B6000F1CFEB8DEC0FFD2FF11DE35AFF4FF0821B
:100B70009FB7F8940B8FEA89FB8980818062CFCF81
:100B8000CF93DF93EC01888D8823B9F0AA89BB89C4
:100B9000E889F9898C9185FD03C0808186FD0DC0AF
:100BA0000FB607FCF7CF8C9185FFF2CF808185FFD0
:100BB000EDCFCE010E945105E9CFDF91CF9108958D
:100BC00080E090E0892B29F00E94470581110E9466
:100BD000000080E090E0892B49F080E090E0892BD4
:100BE00029F00E94000081110E94000080E090E046
:100BF000892B49F080E090E0892B29F00E940000C9
:100C000081110E94000080E090E0892B49F080E093
:100C100090E0892B29F00E94000081110C940000C3
:100C200008958150823108F05AC0E82FF0E08827FB
:100C3000E35EF94F8F4F0C9406163D0641062F06D2
:100C4000350639066F0644064A064E06540658060F
:100C50005C06620666066F066A0670067406809178
:100C600080008F77809380000895809180008F7D31
:100C7000F9CF80918000877FF5CF84B58F7784BDD1
:100C8000089584B58F7DFBCF8091B0008F778093DE
:100C9000B00008958091B0008F7DF9CF80919000D1
:100CA0008F77809390000895809190008F7DF9CF89
:100CB00080919000877FF5CF8091A0008F778093FF
:100CC000A00008958091A0008F7DF9CF8091A000B1
:100CD000877FF5CF809120018F7780932001089541
:100CE000809120018F7DF9CF80912001877FF5CF02
:100CF0001F93CF93DF93282F30E0F901E057F94F8E
:100D00008491F901EF5AF84FD491F901E55FF84F5A
:100D1000C491CC23A9F0162F81110E941106EC2F4B
:100D2000F0E0EE0FFF1FE952F94FA591B4918FB794
:100D3000F894EC91111108C0D095DE23DC938FBF9D
:100D4000DF91CF911F910895DE2BF8CF9091000293
:100D500089130DC0E6EDF6E0E4919FEF9093000259
:100D6000E230E1F038F4EE2381F0E13089F060E028
:100D70000C947806E43049F110F1E530C1F7909118
:100D800073009D7F90937300F2CF10926E00EFCFAF
:100D900090916F009D7F90936F00E9CF90917000CC
:100DA0009D7F9093700091E09093B0009091B1007E
:100DB000987F94609093B1001092B300D8CF909137
:100DC00071009D7F90937100D2CF909172009D7FB2
:100DD00090937200CCCF90917B00977F90937B0093
:100DE0008653806480937C0080917A008064809335
:100DF0007A0080917A0086FDFCCF809178009091F6
:100E0000790008953FB7F894809155049091560465
:100E1000A0915704B091580426B5A89B05C02F3F58
:100E200019F00196A11DB11D3FBFBA2FA92F982F10
:100E30008827BC01CD01620F711D811D911D42E00B
:100E4000660F771F881F991F4A95D1F708958F92D3
:100E50009F92AF92BF92CF92DF92EF92FF920E9449
:100E600002074B015C018FE0C82ED12CE12CF12C44
:100E70000E940207681979098A099B09683E734034
:100E800081059105A8F321E0C21AD108E108F10813
:100E900088EE880E83E0981EA11CB11CC114D104F9
:100EA000E104F10429F7FF90EF90DF90CF90BF901D
:100EB000AF909F908F9008950C943804EF92FF921A
:100EC0000F931F93CF93DF93809158058823A1F050
:100ED0008091B104882361F08FB7F8949091B104A8
:100EE000913071F59DB39093B0049DB39DBB8FBFBE
:100EF00080E58CBD81E08DBD60E0809157050E944A
:100F00007806809158058823F1F030E020E0809148
:100F10005B0590E0880F991F2817390708F03DC03E
:100F2000E0915E05F0915F05E20FF31F80818EBDB9
:100F300000000DB407FEFDCF8EB52F5F3F4FE7CF0A
:100F40008093B004D5CFD0E0C0E080915B0590E005
:100F5000880F991FC817D90700F5E0915E05F09139
:100F60005F05EC0FFD1F0081F0905605E0905505E0
:100F700018E0602F661F6627661F8E2D0E94780678
:100F8000000F61E08F2D0E94780660E08F2D0E9497
:100F90007806115071F72196D8CF61E080915705FE
:100FA0000E94780680915805882371F08091B104E1
:100FB000882351F09FB7F8942091B1048091B00438
:100FC000213049F48DBB9FBFDF91CF911F910F91CD
:100FD000FF90EF9008958FBFF7CF0F931F93CF939C
:100FE000DF938091AB04482F082E000C550B181688
:100FF0000CF048C0E0E0F1E0E41715065CF5AAE962
:10100000B4E093E081E0882329F01E968C911E972E
:101010008F278170915011969111F5CF6091A8049E
:101020002091A9049091AA04882391F070E075950D
:1010300067956093A80430E0359527952093A9041F
:10104000892F90E0959587958093AA04EF5FD4CF80
:10105000E093AB04D091A8041091A904C091AA0414
:101060000091AC04011139C081E00E945C078D231E
:1010700039F40E945C07812319F491E0CC23E9F153
:1010800090E03BC090E09417150621F31CF32091EB
:10109000A80427FD1DC08091A90487FD19C0809177
:1010A000AA048095881F8827881F6091A904309121
:1010B000AA04882379F0220F2093A804862F880F92
:1010C0008093A904832F880F8093AA049150DBCFCB
:1010D00080E0EBCF9093AB04BDCF8091AF04482F5D
:1010E0004150550B0417150671F48150D111C8CF2A
:1010F0000E945C078C2391E019F6892FDF91CF9134
:101100001F910F91089581E0800F0E945C078D234D
:1011100009F0B6CF802F0E945C07812309F0B0CF81
:101120008FEF800FE5CFFC0101900020E9F73197A8
:10113000AF01481B590BBC0182EB94E00C94DD0419
:101140008F929F92AF92BF920F931F93CF93DF9393
:10115000CDB7DEB7A1970FB6F894DEBF0FBECDBFF7
:1011600019A2423008F44AE08E010F5D1F4F842E11
:10117000912CB12CA12CA50194010E94D515E62F2C
:10118000B901CA01EA30F4F4E05DD801EE938D01B3
:10119000232B242B252B79F790E080E0109719F072
:1011A000CD010E949308A1960FB6F894DEBF0FBE42
:1011B000CDBFDF91CF911F910F91BF90AF909F90C6
:1011C0008F900895E95CE1CFE0E5F5E0438550E0DC
:1011D000440F551F70E060E0868597850C943317A7
:1011E000EF92FF920F931F93CF93DF93FF24F3941B
:1011F000D0E0C0E001E010E0B9E0EB2E0E94E4088E
:1012000098010C2E02C0220F331F0A94E2F7E0E08F
:1012100090E080915B05E817E0F5EE9DB0011124A8
:10122000A0915C05B0915D05A60FB71F18964C9173
:1012300050E042235323452B51F14E2F50E0815073
:10124000990B841B950B880F991FA0915E05B09197
:101250005F05A80FB91FFC92A0915C05B0915D05D8
:10126000A60FB71FAC0FBD1F6C9180915B0581501D
:10127000990B841B950B880F991F40915E05509127
:101280005F05840F951FDC0111966C9391E0EF5F71
:10129000C0CF91110E945E072196F394C830D1050A
:1012A00009F0ACCF80E099E020915B05821758F4FB
:1012B000E0915C05F0915D05899FE00DF11D112421
:1012C00010868F5FF1CFDF91CF911F910F91FF902B
:1012D000EF900895FF920F931F93CF93DF938A307F
:1012E000910509F461C08B01EC01F0905B050E944F
:1012F000E40840E0E02F5FEF5F0DC230D10509F454
:1013000049C088F42097E9F09E2F8BE0C130D105C9
:10131000F1F04F5F541788F7DF91CF911F910F9134
:10132000FF900C945E07C330D105B9F1C430D105EC
:1013300081F791E00115110509F490E0919589E09C
:1013400006C091E00115110509F090E08CE0642FD2
:1013500070E020915B052150330B261B370B220FC9
:10136000331FA0915E05B0915F05A20FB31F8C9350
:1013700020915B052150330B261B370B220F331FA7
:1013800060915E0570915F05260F371FD901119698
:101390009C93BFCF9E2F8AE0DACF91E00115110513
:1013A00009F490E08FE0D3CF81E06130710509F05E
:1013B00080E0809364056130710539F4DF91CF914D
:1013C0001F910F91FF900C94F008DF91CF911F9126
:1013D0000F91FF900895DF92EF92FF920F931F936A
:1013E000CF93DF9399E0899F80011124F12CE12CA8
:1013F000C82FD0E0DD24D394DE0CE0915C05F091A1
:101400005D05E00FF11F808590E00E2C02C09595E0
:1014100087950A94E2F780FF2DC00E94E40880912E
:101420005B058150990B8C1B9D0B880F991F209198
:101430005E0530915F05820F931FFC01D082E09121
:101440005C05F0915D05E00FF11FEE0DFF1D408181
:1014500020915B052150330B2C1B3D0B220F331FBA
:1014600080915E0590915F05280F391FF901418336
:101470000E945E07FFEFEF1AFF0A88E0E816F1040A
:1014800009F0B8CF80915C0590915D05080F191F98
:10149000F8011086DF91CF911F910F91FF90EF908F
:1014A000DF9008957F928F929F92AF92BF92CF92DA
:1014B000DF92EF92FF920F931F93CF93DF938C01F4
:1014C000862F902F9770F92E93E0169507959A9591
:1014D000E1F7D02FC091520590915B05CC2309F420
:1014E0007EC0C0E0091708F05DC0A9E00A9FF001C6
:1014F000112441E050E060E070E04A015B010F2CF4
:1015000004C0880C991CAA1CBB1C0A94D2F7782C26
:10151000809427E030E02F19310904C0440F551F93
:10152000661F771F2A95D2F7C42F942F909550E00D
:1015300040E0A82EB12C67E070E09A01E0905C05D5
:10154000F0905D05EE0EFF1E8091540590905305BE
:101550006501042E02C0D594C7940A94E2F7C0FE38
:1015600030C0882319F09B01241B350B2E0D3F1D25
:10157000D9018C91F72C9110FC2E8F29D9018C93D5
:101580004F5F5F4F48305105C1F680915C059091E7
:101590005D05E80FF91F8FEF8087C0916405C111C9
:1015A0005FC0C1E08C2FDF91CF911F910F91FF9011
:1015B000EF90DF90CF90BF90AF909F908F907F90F3
:1015C0000895882319F09B01241B350B2E0D3F1D18
:1015D000D9018C91F82C9110F92E8F21CFCF0917BA
:1015E00008F79091530591110E942004B9E00B9FD8
:1015F000A0011124E0915C05F0915D05E40FF51F59
:101600006F2D70E09091540527E030E0261B370BDA
:10161000911101C09B01E20FF31F8083E0915C05F3
:10162000F0915D05E40FF51F208580915405882316
:1016300089F047E050E0461B570B81E090E0A0E0C6
:10164000B0E004C0880F991FAA1FBB1F4A95D2F7AC
:10165000822BA2CF81E001C0880FFA94EAF7F8CF7D
:1016600080915B05D81708F09CCF802F0E94EB0972
:1016700099CFCF93DF93D091AF04C0E0DC17B9F0DE
:101680008C2F0E945C078F3F81F460E08C2F90E0EC
:101690000E94520A0E94270783E090E090939F04E3
:1016A00080939E04DF91CF910895CF5FE7CF109292
:1016B0009F0410929E04F6CFFF920F931F93CF9337
:1016C000DF9300D000D0CDB7DEB7082FF62E172F4E
:1016D00081E0800F0E9438048983802F0E943804A3
:1016E0008A838FEF800F0E9438048B839E012F5FC7
:1016F0003F4FEF2DF12FBE016C5F7F4FAF014D5F6C
:101700005F4FD9019D919D01819180958923DB01D6
:101710008D93BD01E417F507A1F710E06C81C801B6
:1017200001960E94520A6D81C8010E94520A6E8180
:10173000C80101970E94520A26960FB6F894DEBFA0
:101740000FBECDBFDF91CF911F910F91FF900C94F1
:101750002707EF92FF921F93CF93DF9300D000D023
:10176000CDB7DEB7182F7B0181E0810F0E943804CE
:101770008983812F0E9438048A838FEF810F0E9412
:1017800038048B83F7019E012F5F3F4FBE016C5FD2
:101790007F4FA7014D5F5F4F8191D9019D919D01C1
:1017A000892BDB018D93BD01E417F507A9F7E12E25
:1017B000F12C6C81C70101960E94520A6D81C7010C
:1017C0000E94520A112329F06E81C70101970E94DD
:1017D000520A26960FB6F894DEBF0FBECDBFDF913A
:1017E000CF911F91FF90EF900C9427070F931F93B9
:1017F000CF93DF930BE212E0D0E0C0E0F8016291FA
:101800008F01CE010E94520A2196C032D105B1F754
:10181000DF91CF911F910F91089590E069E058E01A
:101820004FEF969F90011124A0915C05B0915D054A
:10183000A20FB31FFD01752F11927A95E9F7E09180
:101840005C05F0915D05E20FF31F40879F5F8917EC
:1018500040F78091640581110C94F008089567E0C9
:1018600070E082E090E00E946A0961E070E08AE046
:1018700090E00E946A0980915B0581500C940D0CE8
:101880001F920F920FB60F9211240BB60F922F9347
:101890003F934F935F936F937F938F939F93AF93F8
:1018A000BF93EF93FF9380916E0490916F04A0918A
:1018B0007004B0917104892B8A2B8B2BE1F19091EC
:1018C0005D04E0915E04F0915F048081892780834C
:1018D00080916E0490916F04A0917004B091710496
:1018E000181619061A061B069CF480916E04909136
:1018F0006F04A0917004B09171040197A109B1091E
:1019000080936E0490936F04A0937004B09371045D
:10191000FF91EF91BF91AF919F918F917F916F91C7
:101920005F914F913F912F910F900BBE0F900FBE83
:101930000F901F901895809100020E94A606E8CF94
:101940001F920F920FB60F9211240BB60F922F9386
:101950003F934F935F936F937F938F939F93AF9337
:10196000BF93EF93FF9382EB94E00E945105FF91A8
:10197000EF91BF91AF919F918F917F916F915F9107
:101980004F913F912F910F900BBE0F900FBE0F9074
:101990001F9018951F920F920FB60F9211240BB63D
:1019A0000F922F938F939F93EF93FF93E091C20435
:1019B000F091C3048081E091C804F091C90482FDD4
:1019C0001DC090818091CB048F5F8F732091CC04D8
:1019D000821741F0E091CB04F0E0EE54FB4F958F7D
:1019E0008093CB04FF91EF919F918F912F910F9056
:1019F0000BBE0F900FBE0F901F9018958081F2CFF5
:101A00001F920F920FB60F9211242F933F938F9333
:101A10009F93AF93BF9380917E0490917F04A09198
:101A20008004B09181043091540423E0230F2D37BA
:101A300058F50196A11DB11D2093540480937E0496
:101A400090937F04A0938004B09381048091550407
:101A500090915604A0915704B09158040196A11D8D
:101A6000B11D8093550490935604A0935704B093EE
:101A70005804BF91AF919F918F913F912F910F90FB
:101A80000FBE0F901F90189526E8230F0296A11DF8
:101A9000B11DD2CFE2EBF4E01382128288EE93E024
:101AA000A0E0B0E084839583A683B78383EA92E0C5
:101AB0009183808385EC90E09587848784EC90E027
:101AC0009787868780EC90E0918B808B81EC90E00B
:101AD000938B828B82EC90E0958B848B86EC90E0EC
:101AE000978B868B118E128E138E148EE0E5F5E0A7
:101AF0008BE085838DE086838AE0878310868FE480
:101B000095E09287818784E0838781E0848B21E060
:101B100030E0318320838283138214820895CF932F
:101B2000DF9300D01F921F92CDB7DEB7789484B5B3
:101B3000826084BD84B5816084BD85B5826085BDC9
:101B400085B5816085BD80916E00816080936E0057
:101B50001092810080918100826080938100809149
:101B600081008160809381008091800081608093FA
:101B700080008091B10084608093B1008091B000BA
:101B800081608093B0008091910082608093910089
:101B9000809191008160809391008091900081609C
:101BA000809390008091A10082608093A100809139
:101BB000A10081608093A1008091A000816080934A
:101BC000A0008091210182608093210180912101F8
:101BD00081608093210180912001816080932001A8
:101BE00080917A00846080937A0080917A0082608C
:101BF00080937A0080917A00816080937A0080914E
:101C00007A00806880937A001092C100E091C2044B
:101C1000F091C30492E09083E091BE04F091BF0480
:101C20001082E091C004F091C10480E180831092A1
:101C3000CA04E091C604F091C70486E08083E09175
:101C4000C404F091C504808180618083E091C40464
:101C5000F091C504808188608083E091C404F09194
:101C6000C504808180688083E091C404F091C5043C
:101C700080818F7D808319821A821B822091B1021C
:101C80003091B2024091B3022B833C834D8328E014
:101C900030E0309387042093860421EB32E03093C8
:101CA00089042093880490938B0485E0FE0131968B
:101CB000A0E9B4E001900D928A95E1F78CE8809359
:101CC0008A048BE690E0A0E0B0E080938C049093CF
:101CD0008D04A0938E04B0938F0488E00E940104C9
:101CE00088EC90E0A0E0B0E080939A0490939B048D
:101CF000A0939C04B0939D0410929F0410929E04A4
:101D000088E18093AF0487E08093A0048091580518
:101D1000882309F4D6C01FB7F89480915904811123
:101D200024C0E0E4F7E08491E6E8F7E09491E82F3E
:101D3000F0E0EE0FFF1FEF50F94FA591B491EC9139
:101D4000E92321F461E085E30E94780685E30E949F
:101D500001048CB580618CBD8CB580648CBD84E33E
:101D60000E94010483E30E940104809159048F5F63
:101D7000809359041FBF809157050E94010461E0C0
:101D8000809157050E9478061092610510926005B7
:101D9000109263051092620510915B0529E0129F75
:101DA000C00111240E940E1690935D0580935C057E
:101DB000812F90E0880F991F0E940E1690935F0567
:101DC00080935E0580916605909167058C549140E3
:101DD00009F49AC0ECE4F1E0F0936705E09366053E
:101DE0001092680588E08093690510926C05109246
:101DF0006B058FEF90E090936E0580936D051092C8
:101E0000700510926F05E491E63409F033C0EDE4FB
:101E1000F1E0E491E13009F45DC082E090E0E2306D
:101E200029F5EEE4F1E08491EFE4F1E0E49190E053
:101E3000982F88278E0F911D90936C0580936B05CA
:101E4000E0E5F1E08491E1E5F1E0E49190E0982FA4
:101E500088278E0F911D90936E0580936D05E2E5A6
:101E6000F1E0E491E093690587E090E090937005DC
:101E700080936F05C0906F05D0907005F12CE12C18
:101E800020916B0530916C0540916D0550916E0568
:101E900060E04217530708F435C0F601E45BFE4FDB
:101EA0008491681708F4682F90E0B0E0A0E00196F4
:101EB000A11DB11DC80ED91EEA1EFB1E2F5F3F4F8C
:101EC000E8CF809155050E940104809156050E943B
:101ED000010451CFEEE4F1E0E491F0E0F0936C0501
:101EE000E0936B05EFE4F1E0E491F0E0F0936E0530
:101EF000E0936D05E0E5F1E0E491E093690585E0AC
:101F000090E0B4CF60936A0570E060E083E090E019
:101F10000E946A0967E070E081E090E00E946A092F
:101F200067E070E082E090E00E946A0970E060E0A3
:101F300084E090E00E946A0980915B0581500E94D4
:101F40000D0C70E060E090E080E00E946A090E9461
:101F50002F0C0E94F60B22242394312C88248A947F
:101F6000982C540186E30E94EB0621E030E0873292
:101F700092406CF486E30E94EB0621E030E08A3D5B
:101F8000914014F030E020E03195219531098091A5
:101F9000950490919604280F391F3093960420934E
:101FA000950420919704211108C087E30E94EB0655
:101FB00021E0893592400CF420E020939704809131
:101FC000980481111CC0E4E9F6E08491E5E5F7E0AE
:101FD0000491EFE0F7E01491112309F4B1C18111EC
:101FE0000E941106E12FF0E0EE0FFF1FEA58F94FB3
:101FF000A591B4918C91082381E009F080E0809351
:10200000980490919904992309F4BAC42FB7F894CD
:1020100080917E0490917F04A0918004B09181040E
:102020002FBF40917A0450917B0460917C047091A1
:102030007D048C019D01041B150B260B370B409171
:102040008C0450918D0460918E0470918F0404175C
:1020500015072607370708F4F3C080937A04909396
:102060007B04A0937C04B0937D0480919004811143
:102070005DC3E0918804F0918904809191049F01EF
:1020800043E0849F200D311D1124D90112968C91BB
:102090001297882309F456C1AC91F90121818093EC
:1020A00090048091860490918704222309F43BC315
:1020B000E6EDF6E0B0E0AA0FBB1FA55DBD4F2450D2
:1020C000CD90DC9002C0CC0CDD1C2A95E2F720916B
:1020D000000282133DC1149117FDADC00E9401049E
:1020E000112319F0123009F078C2F12CE12C60E0D4
:1020F00072E18AE790E0A70196010E94A3152901E9
:102100003A01BA01A90141505109610971094F3FD2
:1021100051056105710509F00CF447C260E472E4F1
:102120008FE090E0A70196010E94A315BA01A901D2
:102130004150510961097109123009F0F3C182E07F
:102140004F3F51056105710509F00CF463C060E96A
:1021500070ED83E090E0A70196010E94A315BA01FB
:10216000A901415051096109710983E04F3F5105AF
:102170006105710509F00CF44DC068E478EE81E06A
:1021800090E0A70196010E94A315BA01A901415050
:1021900051096109710984E04F3F510561057105DD
:1021A000C9F1C4F164E274EF80E090E0A701960108
:1021B0000E94A315BA01A901415051096109710991
:1021C00085E04F3F51056105710521F118F162E18C
:1021D0007AE780E090E0A70196010E94A315BA017A
:1021E000A901415051096109710986E04F3F51052C
:1021F0006105710579F070F0B301A2018AE075956F
:102200006795579547958A95D1F7415051096109CE
:10221000710987E09091B100987F892B8093B1007C
:10222000123009F470C20CF067C2112309F4C4C162
:10223000113009F400C2809191048F5F8093910462
:102240002FB7F89480917E0490917F04A091800430
:10225000B09181042FBF409182045091830460911A
:102260008404709185048C019D01041B150B260BC1
:10227000370B40919A0450919B0460919C0470919B
:102280009D04041715072607370708F475C38093C4
:10229000820490938304A0938404B0938504809176
:1022A0009E0490919F048130910509F470C208F456
:1022B000DBC2039709F43EC20E94390B87E394E026
:1022C0000E94930880E594E00E94930801EA14E0DC
:1022D00034EAE32E34E0F32EF80161918F0170E0CF
:1022E0007160072E000C880B990B42E00E94A00839
:1022F00080E594E00E949308E016F10669F7C0902B
:102300009E04D0909F040D2C000CEE08FF084AE0BC
:10231000C701B601F7FE0DC06DE282EB94E00E94AA
:10232000730566277727CB016C197D098E099F09F4
:102330004AE00E94A00880E594E00E9493081CC334
:1023400081E05DCE10929104A08121818281A7CE8F
:102350002F3F09F070CF809300021491212F1F3F6F
:1023600009F469CF123009F472C050F4112389F1D5
:10237000113009F44AC027FD5ECF0E940104B2CE9D
:10238000143009F4ADC008F488C01530A1F71092DC
:102390002001109221012091210128602093210128
:1023A000209121012160209321019C013327F90113
:1023B000E55FF84FE491F0E0EE0FFF1FE952F94FAF
:1023C00045915491F901EF5AF84FE491E0935A0482
:1023D00085CE14BC15BC24B5226024BD25B5216072
:1023E00025BD9C013327F901E55FF84FE491F0E04A
:1023F000EE0FFF1FE952F94F45915491F901EF5A41
:10240000F84FE491E093610469CE1092800010923D
:10241000810020918100286020938100209181001B
:102420002160209381009C013327F901E55FF84F7B
:10243000E491F0E0EE0FFF1FE952F94F45915491FE
:10244000F901EF5AF84FE491E093600447CE1092FF
:10245000B0001092B1002091B00022602093B00033
:102460002091B10021602093B1009C013327F90134
:10247000E55FF84FE491F0E0EE0FFF1FE952F94FEE
:102480004591549150935F0440935E04F901EF5AD3
:10249000F84FE491E0935D0421CE109290001092E9
:1024A000910020919100286020939100209191004B
:1024B0002160209391009C013327F901E55FF84FDB
:1024C000E491F0E0EE0FFF1FE952F94F459154916E
:1024D000F901EF5AF84FE491E0935C0413E0FECD6C
:1024E0001092A0001092A1002091A10028602093DA
:1024F000A1002091A10021602093A1009C0133271D
:10250000F901E55FF84FE491F0E0EE0FFF1FE952AB
:10251000F94F45915491F901EF5AF84FE491E09346
:102520005B04DCCD4F3F51056105710509F00CF4EA
:1025300052C068E478EE81E090E0A70196010E9425
:10254000A315BA01A901415051096109710984E03B
:10255000111137CE83E04F3F51056105710541F1FF
:102560003CF162E17AE780E090E0A70196010E94E9
:10257000A315BA01A901415051096109710984E00B
:102580004F3F51056105710599F090F0B301A2012B
:102590009AE075956795579547959A95D1F741506B
:1025A00051096109710985E003C081E0111132CE42
:1025B00095B5987F892B85BD47BD80927604909212
:1025C0007704A0927804B092790480916E008260C2
:1025D00080936E0030CE82E0E9CFF12CE12C60E0F8
:1025E00072E18AE790E0A70196010E94A315BA0163
:1025F000A901415051096109710991E04115510545
:10260000F1E06F0771057CF068E478EE81E090E01E
:10261000A70196010E94A315BA01A90141505109D1
:102620006109710993E01130C1F480918100887FC4
:10263000892B809381005093890040938800809279
:10264000720490927304A0927404B0927504809105
:102650006F00826080936F00EECD1330C1F48091E3
:102660009100887F892B809391005093990040932B
:10267000980080926A0490926B04A0926C04B092CD
:102680006D0480917100826080937100D4CD14300C
:10269000C1F48091A100887F892B8093A100509381
:1026A000A9004093A8008092660490926704A092CB
:1026B0006804B09269048091720082608093720015
:1026C000BACD153009F0ACCD80912101887F892BDE
:1026D0008093210150932901409328018092620444
:1026E00090926304A0926404B09265048091730098
:1026F0008260809373009FCD143089F20CF4B5CFC3
:10270000153041F398CD4093B30080926E049092BF
:102710006F04A0927004B092710480917000826086
:102720008093700088CD0E94A60685CD815080934D
:10273000900486CD82E090E090939F0480939E0465
:10274000C090AF04D12CCD1409F4B8CD8D2D0E94CA
:102750005C0791E09D0D811116C0EC2CF12C0D2D24
:1027600010E0C80101968E159F0579F08D2D0E940D
:102770003804682FC8010E94520AD394DC1478F3FD
:102780000E9427079BCDD92EDECF80E0F2CF90911B
:10279000950410929604109295040091970410925B
:1027A000970410919804109298048091AB04890FBB
:1027B0008093AB048091AC0492E0011101C091E0E0
:1027C000891B8093AC04112331F08091AD048F5F9D
:1027D00083708093AD042091AD04E091AE048E2F00
:1027E00090E0FC01EE0FFF1FE80FF91F35E1239F7A
:1027F000E00DF11D1124ED5BFD4F80818093A80455
:1028000081818093A90482818093AA0461EA74E0A3
:102810008091A5040E945C0B0E94ED07882381F043
:1028200087E0E8EAF4E0A1EAB4E001900D928A952D
:10283000E1F761EA74E08091A5040E94A90B3ECD06
:10284000011102C0112349F08091AC048F5F809385
:10285000AC040E94ED078111E3CF82E090E09093F9
:102860009F0480939E04E5CF6091A004673009F433
:1028700062C043E0649FB00111246D5B7D4F8BE12A
:102880000E945C0BE091A0048E2F90E0FC01EE0F03
:10289000FF1FE80FF91FED5BFD4F80818093A804B7
:1028A00081818093A90482818093AA040E944B15A0
:1028B00027E030E040E050E00E94A3156093A004C0
:1028C00083E0689FB00111246D5B7D4F8BE10E9416
:1028D000A90B1092AD041092AB048091AF0482500A
:1028E0008093AC040E94ED07811133C010929904CB
:1028F000809186040E94A606109290041092910482
:1029000010929F0410929E0487E08093A004E1EA55
:10291000F4E0DF01282F1D922A95E9F7E8EAF4E0B8
:10292000DF011D928A95E9F70E942F0C0E94F60B99
:102930000E94E00517CB0E944B1527E030E040E0F5
:1029400050E00E94A315FB01EE0FFF1FE60FF71FDB
:10295000A2CF87E0E8EAF4E0A1EAB4E001900D92AA
:102960008A95E1F761EA74E08091A5040E94A90BC1
:1029700030929F0420929E0481E080939904D8CFE6
:102980001092980480939904882391F20E942F0C4E
:1029900027E9E22E22E0F22E0FE110E0D7016D913F
:1029A0007D01C8010E94520A0E94270701501109A7
:1029B0000731110599F7BCCF80915805882399F00C
:1029C0009FB7F89480915904882319F0815080931F
:1029D000590480915904811105C08CB58F7B8CBD41
:1029E0001092B1049FBF80915C0590915D050E949B
:1029F000AA1680915E0590915F050C94AA168F929D
:102A00009F92AF92BF92CF92DF92EF92FF92CF93BD
:102A1000DF93EC01688179818A819B816115710561
:102A20008105910521F464E279ED8BE597E02DE1D4
:102A300033EF41E050E00E94A31549015A019B0188
:102A4000AC01A7EAB1E40E94C2156B017C01ACEEB7
:102A5000B4EFA50194010E94D015C60ED71EE81E42
:102A6000F91EF7FE06C081E0C81AD108E10880E827
:102A7000F80AC882D982EA82FB82C701B6019F7731
:102A8000DF91CF91FF90EF90DF90CF90BF90AF900C
:102A90009F908F9008958F929F92AF92BF92CF9206
:102AA000DF92EF92FF926091010270910202809199
:102AB000030290910402611571058105910521F4CD
:102AC00064E279ED8BE597E02DE133EF41E050E0F2
:102AD0000E94A31549015A019B01AC01A7EAB1E488
:102AE0000E94C2156B017C01ACEEB4EFA50194010C
:102AF0000E94D015C60ED71EE81EF91EF7FE06C0AE
:102B000081E0C81AD108E10880E8F80AC092010201
:102B1000D0920202E0920302F0920402C701B601D1
:102B20009F77FF90EF90DF90CF90BF90AF909F90F6
:102B30008F900895609301027093020280930302C4
:102B4000909304020895052E97FB1EF400940E94B2
:102B5000BA1557FD07D00E94D51507FC03D04EF4D7
:102B60000C94BA1550954095309521953F4F4F4F95
:102B70005F4F089590958095709561957F4F8F4F29
:102B80009F4F08950E94F715A59F900DB49F900D3B
:102B9000A49F800D911D11240895B7FF0C94C215B8
:102BA0000E94C215821B930B0895A1E21A2EAA1B44
:102BB000BB1BFD010DC0AA1FBB1FEE1FFF1FA217ED
:102BC000B307E407F50720F0A21BB30BE40BF50BEA
:102BD000661F771F881F991F1A9469F76095709573
:102BE000809590959B01AC01BD01CF010895A29FF6
:102BF000B001B39FC001A39F700D811D1124911DD1
:102C0000B29F700D811D1124911D0895EE0FFF1FBD
:102C1000881F8BBF0790F691E02D19940F931F9397
:102C2000CF93DF938230910510F482E090E0E09141
:102C30007305F091740530E020E0B0E0A0E030973B
:102C400099F42115310509F44AC0281B390B2430A9
:102C50003105D8F58A819B816115710589F1FB01E8
:102C600093838283FE0111C04081518102811381CF
:102C700048175907E0F04817590799F4109761F081
:102C800012960C93129713961C933296CF01DF91F4
:102C9000CF911F910F9108950093730510937405C0
:102CA000F4CF2115310551F04217530738F0A9012F
:102CB000DB019A01BD01DF01F801C1CFEF01F9CFBE
:102CC0009093740580937305CDCFFE01E20FF31F3F
:102CD000819391932250310939832883D7CF209152
:102CE000710530917205232B41F420910702309138
:102CF00008023093720520937105209105023091EE
:102D000006022115310541F42DB73EB74091090265
:102D100050910A02241B350BE0917105F091720568
:102D2000E217F307A0F42E1B3F0B2817390778F0A2
:102D3000AC014E5F5F4F2417350748F04E0F5F1F01
:102D40005093720540937105819391939FCFF0E06A
:102D5000E0E09CCFCF93DF930097E9F0FC0132973E
:102D600013821282A0917305B0917405ED0130E0D9
:102D700020E01097A1F420813181820F931F2091D0
:102D80007105309172052817390709F061C0F09379
:102D90007205E0937105DF91CF910895EA01CE1796
:102DA000DF07E8F54A815B819E0141155105B1F7C6
:102DB000E901FB83EA8349915991C40FD51FEC17B0
:102DC000FD0761F4808191810296840F951FE901CE
:102DD00099838883828193819B838A83F0E0E0E0FA
:102DE00012968D919C9113970097B9F52D913C9176
:102DF0001197CD010296820F931F2091710530919A
:102E000072052817390739F6309751F51092740575
:102E100010927305B0937205A0937105BCCFD38354
:102E2000C28340815181840F951FC817D90761F46F
:102E30004E5F5F4F88819981480F591F51834083AE
:102E40008A819B81938382832115310509F0B0CF5C
:102E5000F0937405E09373059ECFFD01DC01C0CFB4
:102E600013821282D7CFDC0101C06D9341505040D4
:102E7000E0F7089513E0CDECD3E000E006C0802F2A
:102E8000FE010E9406162196011DCE3CD10780E06E
:082E90000807A9F7F894FFCF31
:102E9800FF01000000000075058000702020007010
:102EA80040704070007020200070507060500070BA
:102EB80020700070402070000000000501150125F9
:102EC80001370149015D01710188019F01B801D2F3
:102ED80001ED010808080808181010181818000053
:102EE8001C08101808081810001C00101C000038D6
:102EF800201818000818080C1800180C00080808F2
:102F08000C0808301010181800081C00080C0404DD
:102F18000C08001C00001C04083800181800080CD5
:102F280008000C1800180CFF818181818181FF0045
:102F38000000007305DD040A05C0053B0519052DD1
:102F4800050405010000010B04010005010205014B
:102F58000000010005010B04010904010000020042
:102F680005010405010000010205010005010B042B
:102F7800010000020005010205010000010405012D
:102F88000000010005010000010904010000010919
:102F9800040100000300000102050100000105050D
:102FA80001090501000001070501050501040501E6
:102FB80000000200050104050100000102050100EE
:102FC80005010B04010000020005010205010000D3
:102FD80001040501000001000501000001090401C8
:102FE8000000010904010000030405010000010BB1
:102FF80004010005010205010000010005010B04A0
:103008000109040100000200050104050100000196
:103018000205010005010B04010000020005010280
:103028000501000001040501000001000501000080
:103038000109040100000109040100000300000166
:10304800020501000001050501090501000001074D
:10305800050105050104050100000200050104053C
:10306800010000010205010005010B040100000236
:10307800000501020501000001040501000001002E
:103088000501000001090401000001090401000014
:10309800030405080005080205080B0408000508D4
:1030A8000904080804080B040804050800050802B8
:1030B80005080B04080005040405040905040905AE
:1030C800040805100000003D3D3D3D3D3D3D3D3DB2
:1030D8003D3D3D3D3D3D3D3D3D3D3D3D3D3D3D0055
:0430E8000D0A0000CD
:00000001FF
