:100000000C9429010C945A010C945A010C945A0135
:100010000C945A010C945A010C945A010C945A01F4
:100020000C945A010C945A010C945A010C945A01E4
:100030000C945A010C9416070C945A010C945A0112
:100040000C945A010C945A010C945A010C945A01C4
:100050000C945A010C945A010C945A010C94D60732
:100060000C945A010C94A0070C9476070C945A0136
:100070000C945A010C945A010C945A010C945A0194
:100080000C945A010C945A010C945A010C945A0184
:100090000C945A010C945A010C945A010C945A0174
:1000A0000C945A010C945A010C945A010C945A0164
:1000B0000C945A010C945A010C945A010C945A0154
:1000C0000C945A010C945A010C945A010C945A0144
:1000D0000C945A010C945A010C945A010C945A0134
:1000E0000C945A010C9461050C94F7040C9475055A
:1000F0000C9409050C94EA040C94FB040C940F0571
:100100000C94BB050C9421050C9417050C94130555
:100110000C94EE040C9483050C94CD040C94F1041F
:100120000C9408060C9420080C9401050C94E2042D
:100130000C94E6040C941D050C94D2040C94050553
:100140000C9452050C94250500000A0B02090C0DB5
:100150000E0807030401000000000000000000007A
:10016000000000000000000000000000000000008F
:10017000000000001211100000000000000000004C
:10018000000000000000000000000000000002006D
:10019000002200250028002B002E00310034000230
:1001A000010000050108010B0100002100240027C7
:1001B000002A002D00300033000101000004010777
:1001C000010A0105050505070508080808020202DD
:1001D000020A0A08080404040401010101010101E2
:1001E000010303030303030303040707070C0C0CB9
:1001F0000C0C0C0C0C020202020606060606060691
:10020000060B0B0B0B0B0B0B0B010210202008082D
:100210001020401020408002010201080402010168
:100220000204081020408080402010080402018051
:1002300004020180402010080402010804020101A8
:1002400002040810204080010204081020408000B1
:10025000200811241FBECFEFD1E2DEBFCDBF00E0EA
:100260000CBF14E0A0E0B2E0EEEFF4E100E00BBF61
:1002700002C007900D92A437B107D9F725E0A4E793
:10028000B4E001C01D92A834B207E1F711E0C9E261
:10029000D1E000E006C021970109802FFE010E94F5
:1002A000750AC832D10780E00807A9F70E945008F4
:1002B0000C947D0A0C94000090E0FC01E75FFD4F78
:1002C00024918D539E4FFC018491882399F090E0F6
:1002D000880F991FFC01E755FE4FA591B491FC01D1
:1002E000E157FE4F859194918FB7F894EC91E22BF2
:1002F000EC938FBF08958F929F92AF92BF92CF924F
:10030000DF92EF92FF92CF936B01909100028917D9
:1003100069F09F3F09F475C0CF91FF90EF90DF9097
:10032000CF90BF90AF909F908F900895EEE8F1E04E
:10033000C491C7FDF1CF0E945C01CC2319F0C230FB
:1003400009F0DDC1F12CE12C60E072E18AE790E078
:10035000A70196010E94560A49015A01BA01A90152
:1003600041505109610971094F3F510561057105FE
:1003700009F00CF4A9C160E472E48FE090E0A701F9
:1003800096010E94560ABA01A9014150510961091A
:100390007109C23009F01EC182E04F3F510561056D
:1003A000710509F00CF45BC160E970ED83E090E049
:1003B000A70196010E94560ABA01A90141505109AC
:1003C0006109710983E04F3F51056105710509F02D
:1003D0000CF445C168E478EE81E090E0A701960155
:1003E0000E94560ABA01A9014150510961097109D7
:1003F0004F3F51056105710511F00CF041C184E0DA
:100400002EC180930002EEE8F1E0C4919C2FCF3F13
:1004100009F482CFC23009F472C050F4CC2389F1C0
:10042000C13009F44AC097FD77CF0E945C0187CFA5
:10043000C43009F4ADC008F488C0C530A1F71092EB
:100440002001109221019091210198609093210147
:1004500090912101916090932101282F30E0F901C2
:10046000ED53FE4FE491F0E0EE0FFF1FE157FE4F1A
:1004700045915491F901E75FFD4FE491E0937D04CC
:100480005ACF14BC15BC94B5926094BD95B59160DB
:1004900095BD282F30E0F901ED53FE4FE491F0E0D7
:1004A000EE0FFF1FE157FE4F45915491F901E75FB1
:1004B000FD4FE491E09384043ECF109280001092AF
:1004C00081009091810098609093810090918100CB
:1004D000916090938100282F30E0F901ED53FE4F99
:1004E000E491F0E0EE0FFF1FE157FE4F459154916C
:1004F000F901E75FFD4FE491E09383041CCF109274
:10050000B0001092B1009091B00092609093B00052
:100510009091B10091609093B100282F30E0F901E3
:10052000ED53FE4FE491F0E0EE0FFF1FE157FE4F59
:10053000459154915093820440938104F901E75FFF
:10054000FD4FE491E0938004F6CE1092900010925B
:1005500091009091910098609093910090919100FA
:10056000916090939100282F30E0F901ED53FE4FF8
:10057000E491F0E0EE0FFF1FE157FE4F45915491DB
:10058000F901E75FFD4FE491E0937F04C3E0D3CE30
:100590001092A0001092A1009091A10098609093F9
:1005A000A1009091A10091609093A100282F30E0CC
:1005B000F901ED53FE4FE491F0E0EE0FFF1FE1571C
:1005C000FE4F45915491F901E75FFD4FE491E093AF
:1005D0007E04B1CE4F3F51056105710509F00CF461
:1005E0008CC068E478EE81E090E0A70196010E945B
:1005F000560ABA01A9014150510961097109CC2378
:1006000009F449C14F3F51056105710509F00CF42A
:10061000F6CE62E17AE780E090E0A70196010E94C1
:10062000560ABA01A9014150510961097109CC2347
:1006300009F41AC186E04F3F51056105710579F053
:1006400070F0B501A4019AE07595679557954795A7
:100650009A95D1F7415051096109710987E090914C
:10066000B100987F892B8093B100C23009F4E9C0B2
:100670000CF0E0C0CC2379F1C13009F04DCE6DC053
:1006800064E274EF80E090E0A70196010E94560AB0
:10069000BA01A901415051096109710985E04F3F33
:1006A000510561057105D9F2D0F262E17AE780E087
:1006B00090E0A70196010E94560ABA01A901415093
:1006C000510961097109B6CF81E0C111C8CF95B553
:1006D000987F892B85BD47BD8FEF9FEFDC0180930D
:1006E000990490939A04A0939B04B0939C048091E6
:1006F0006E00826080936E000FCE82E0E6CFF12C18
:10070000E12C60E072E18AE790E0A70196010E9487
:10071000560ABA01A901415051096109710991E0D4
:100720004115510581E0680771057CF068E478EEB9
:1007300081E090E0A70196010E94560ABA01A90142
:10074000415051096109710993E0C130D9F4809198
:100750008100887F892B809381005093890040938A
:1007600088008FEF9FEFDC018093950490939604AF
:10077000A0939704B093980480916F008260809357
:100780006F00CACDC330D9F480919100887F892B46
:100790008093910050939900409398008FEF9FEFC2
:1007A000DC0180938D0490938E04A0938F04B0930A
:1007B000900480917100826080937100ADCDC4304F
:1007C000D9F48091A100887F892B8093A100509358
:1007D000A9004093A8008FEF9FEFDC01809389046C
:1007E00090938A04A0938B04B0938C048091720040
:1007F00082608093720090CDC53009F036CF809131
:100800002101887F892B80932101509329014093F6
:1008100028018FEF9FEFDC0180938504909386047D
:10082000A0938704B09388048091730082608093C2
:10083000730072CDC43059F20CF4ACCFC53029F33B
:100840006BCD4093B3008FEF9FEFDC018093910459
:1008500090939204A0939304B093940480917000B9
:1008600082608093700058CD84E04F3F5105610550
:10087000710509F008F42BCFB501A4018AE0759544
:100880006795579547958A95D1F741505109610968
:10089000710985E01CCF83E04F3F5105610571056B
:1008A00009F00CF414CFB5CE90910002891311C059
:1008B000EEE8F1E0E4919FEF90930002E23009F45A
:1008C0004FC008F038C0EE2309F441C0E13009F40C
:1008D00041C0282F30E0F901E85BFE4F9491F90107
:1008E000E75FFD4F44912D533E4FF90124912223A0
:1008F00009F467C0992309F455C09150923108F06A
:1009000051C0E92FF0E08827E757FB4F8F4F0C9439
:10091000750AEA04EE04CD04E204E604D204F1040C
:10092000F704FB040105050509050F051305D204AD
:1009300017051D052105E43051F118F1E53009F0E6
:10094000C8CF909173009D7F90937300C2CF109297
:100950006E00BFCF90916F009D7F90936F00B9CFD5
:10096000909170009D7F9093700091E09093B00003
:100970009091B100987F94609093B1001092B30071
:10098000A8CF909171009D7F90937100A2CF90911C
:1009900072009D7F909372009CCF809180008F7732
:1009A00080938000E22FF0E0EE0FFF1FE157FE4F33
:1009B000A591B4918FB7F894EC9140954E234C9348
:1009C0008FBF0895809180008F7DEACF8091800055
:1009D000877FE6CF84B58F7784BDE4CF84B58F7DE4
:1009E000FBCF8091B0008F778093B000DBCF8091F8
:1009F000B0008F7DF9CF809190008F778093900029
:100A0000D1CF809190008F7DF9CF80919000877F2A
:100A1000F5CF8091A0008F778093A000C3CF809105
:100A2000A0008F7DF9CF8091A000877FF5CF8091C6
:100A300020018F7780932001B5CF809120018F7D99
:100A4000F9CF80912001877FF5CFAF92BF92CF92EF
:100A5000DF92EF92FF920F931F93CF93DF936C017E
:100A60007B018B01040F151FEB015E01AE18BF085F
:100A7000C017D10759F06991D601ED91FC91019011
:100A8000F081E02DC6011995892B79F7C501DF9119
:100A9000CF911F910F91FF90EF90DF90CF90BF907B
:100AA000AF900895FC01538D448D252F30E0842FA5
:100AB00090E0821B930B541710F0CF960895019786
:100AC0000895FC01918D828D981761F0A28DAE0F73
:100AD000BF2FB11D5D968C91928D9F5F9F73928FFA
:100AE00090E008958FEF9FEF0895FC01918D828D26
:100AF000981731F0828DE80FF11D858D90E00895F3
:100B00008FEF9FEF0895FC01918D228D892F90E04A
:100B1000805C9F4F821B91098F73992708958DE9FF
:100B200094E00E94830521E0892B09F420E0822FC4
:100B30000895FC01A48DA80FB92FB11DA35ABF4F72
:100B40002C91848D90E001968F739927848FA689CC
:100B5000B7892C93A089B1898C91837080648C9320
:100B6000938D848D981306C00288F389E02D8081CF
:100B70008F7D80830895EF92FF920F931F93CF9301
:100B8000DF93EC0181E0888F9B8D8C8D98131AC0C8
:100B9000E889F989808185FF15C09FB7F894EE89AF
:100BA000FF896083E889F98980818370806480830C
:100BB0009FBF81E090E0DF91CF911F910F91FF9057
:100BC000EF900895F62E0B8D10E00F5F1F4F0F73FF
:100BD0001127E02E8C8D8E110CC00FB607FCFACFBA
:100BE000E889F989808185FFF5CFCE010E949905BA
:100BF000F1CFEB8DEC0FFD2FF11DE35AFF4FF0828B
:100C00009FB7F8940B8FEA89FB8980818062CFCFF0
:100C1000CF93DF93EC01888D8823B9F0AA89BB8933
:100C2000E889F9898C9185FD03C0808186FD0DC01E
:100C30000FB607FCF7CF8C9185FFF2CF808185FF3F
:100C4000EDCFCE010E949905E9CFDF91CF910895B4
:100C500080E090E0892B29F00E948F0581110E948D
:100C6000000080E090E0892B49F080E090E0892B43
:100C700029F00E94000081110E94000080E090E0B5
:100C8000892B49F080E090E0892B29F00E94000038
:100C900081110E94000080E090E0892B49F080E003
:100CA00090E0892B29F00E94000081110C94000033
:100CB00008953FB7F8948091750490917604A091BF
:100CC0007704B091780426B5A89B05C02F3F19F092
:100CD0000196A11DB11D3FBFBA2FA92F982F8827BC
:100CE000BC01CD01620F711D811D911D42E0660F97
:100CF000771F881F991F4A95D1F708958F929F9269
:100D0000AF92BF92CF92DF92EF92FF924B015C01C4
:100D10000E9459066B017C010E9459066C197D09DD
:100D20008E099F09683E734081059105A8F321E073
:100D3000821A9108A108B10888EEC80E83E0D81E77
:100D4000E11CF11C81149104A104B10429F7FF9066
:100D5000EF90DF90CF90BF90AF909F908F900895CD
:100D6000FC0101900020E9F73197AF01481B590BB6
:100D7000BC018DE994E00C9425058F929F92AF926F
:100D8000BF920F931F93CF93DF93CDB7DEB7A19799
:100D90000FB6F894DEBF0FBECDBF19A2423008F4E3
:100DA0004AE08E010F5D1F4F842E912CB12CA12C97
:100DB000A50194010E94340AE62FB901CA01EA3064
:100DC000F4F4E05DD801EE938D01232B242B252B29
:100DD00079F790E080E0109719F0CD010E94B006FD
:100DE000A1960FB6F894DEBF0FBECDBFDF91CF91B5
:100DF0001F910F91BF90AF909F908F900895E95CE5
:100E0000E1CF682F70E090E080E04AE00C94BD06EE
:100E1000CF93DF930E940107EC018BE694E00E94E0
:100E2000B0068C0F9D1FDF91CF9108951F920F92F6
:100E30000FB60F9211240BB60F922F933F934F933F
:100E40005F936F937F938F939F93AF93BF93EF9332
:100E5000FF938091910490919204A0919304B0919A
:100E60009404892B8A2B8B2BE1F190918004E091E3
:100E70008104F0918204808189278083809191048C
:100E800090919204A0919304B091940418161906BD
:100E90001A061B069CF48091910490919204A091F3
:100EA0009304B09194040197A109B109809391042E
:100EB00090939204A0939304B0939404FF91EF91C4
:100EC000BF91AF919F918F917F916F915F914F9162
:100ED0003F912F910F900BBE0F900FBE0F901F9060
:100EE0001895809100020E945404E8CF1F920F923F
:100EF0000FB60F9211240BB60F922F933F934F937F
:100F00005F936F937F938F939F93AF93BF93EF9371
:100F1000FF938DE994E00E949905FF91EF91BF91B5
:100F2000AF919F918F917F916F915F914F913F9181
:100F30002F910F900BBE0F900FBE0F901F90189522
:100F40001F920F920FB60F9211240BB60F922F9390
:100F50008F939F93EF93FF93E091AD04F091AE04D4
:100F60008081E091B304F091B40482FD1DC09081B2
:100F70008091B6048F5F8F732091B704821741F080
:100F8000E091B604F0E0E356FB4F958F8093B604F2
:100F9000FF91EF919F918F912F910F900BBE0F902A
:100FA0000FBE0F901F9018958081F2CF1F920F9265
:100FB0000FB60F9211242F933F938F939F93AF936C
:100FC000BF938091790490917A04A0917B04B091B1
:100FD0007C043091740423E0230F2D3758F50196DB
:100FE000A11DB11D209374048093790490937A0419
:100FF000A0937B04B0937C04809175049091760457
:10100000A0917704B09178040196A11DB11D809341
:10101000750490937604A0937704B0937804BF91FD
:10102000AF919F918F913F912F910F900FBE0F9095
:101030001F90189526E8230F0296A11DB11DD2CF4F
:10104000EDE9F4E01382128288EE93E0A0E0B0E0D4
:1010500084839583A683B7838DE192E09183808317
:1010600085EC90E09587848784EC90E0978786876D
:1010700080EC90E0918B808B81EC90E0938B828B65
:1010800082EC90E0958B848B86EC90E0978B868B3E
:10109000118E128E138E148E81E080933E0508957A
:1010A000CF93DF9300D000D000D0CDB7DEB77894D7
:1010B00084B5826084BD84B5816084BD85B582605D
:1010C00085BD85B5816085BD80916E00816080930E
:1010D0006E00109281008091810082608093810077
:1010E0008091810081608093810080918000816087
:1010F000809380008091B10084608093B1008091E2
:10110000B00081608093B0008091910082608093F4
:101110009100809191008160809391008091900076
:101120008160809390008091A10082608093A100F3
:101130008091A10081608093A1008091A0008160D6
:101140008093A00080912101826080932101809191
:101150002101816080932101809120018160809331
:10116000200180917A00846080937A0080917A00D7
:10117000826080937A0080917A00816080937A0007
:1011800080917A00806880937A001092C10088E094
:101190000E945C01E091AD04F091AE0492E0908376
:1011A000E091A904F091AA041082E091AB04F091BF
:1011B000AC0480E180831092B504E091B104F09119
:1011C000B20486E08083E091AF04F091B0048081A6
:1011D00080618083E091AF04F091B00480818860E9
:1011E0008083E091AF04F091B004808180688083B7
:1011F000E091AF04F091B00480818F7D8083909363
:1012000041058CE8809340058BE690E0A0E0B0E0DB
:101210008093420590934305A0934405B093450500
:1012200084E00E94010785E00E94010784E00E949B
:10123000080790913F0580913E05981798F519820F
:1012400088E090E09F838E838BE292E09987888785
:10125000BE01685F7F4F072E000C880B990B40E1A1
:101260000E94BD068BE694E00E94B006E885F985F1
:1012700080819181A2818B839C83AD8380913F0586
:1012800099E0A0914605B0914705899FA00DB11D39
:101290001124FE01319601900D929A95E1F78F5F2E
:1012A00080933F0568EB71E088E00E947B0168EE67
:1012B00073E080E090E00E947E0688E00E94540483
:1012C00039E0E32E8BE493E04C01990FAA08BB08A8
:1012D00043E0D42E2FB7F8948091790490917A044A
:1012E000A0917B04B0917C042FBF40913A055091AE
:1012F0003B0560913C0570913D058C019D01041BEF
:10130000150B260B370B4091420550914305609118
:10131000440570914505041715072607370708F49B
:101320009AC080933A0590933B05A0933C05B093F7
:101330003D05F12C80913F05F81608F08CC0009116
:10134000460510914705FE9C000D111D112440E13A
:10135000C501B4010E94BD068EE694E00E94B0066D
:101360002801012E000C6608770840E1C301B20194
:101370000E94BD068EE694E00E94B00640E1C301E3
:10138000B2010E94BD068EE694E00E94B006D8012C
:1013900011968C910E9401078EE694E00E94B0069F
:1013A000F80180810E9401078EE694E00E94B00659
:1013B000D80112968C910E94010781E794E00E9467
:1013C000B006F80183810E94010781E794E00E9442
:1013D000B006D80114968C910E940807F80180810C
:1013E000811130C081810780F085E02D8D9DE00D59
:1013F000F11D112480819181A281F8018283938360
:10140000A4831482938185819923C9F0E281F0E05D
:10141000EE0FFF1FEF5FFD4F94506081718102C09E
:10142000660F771F9A95E2F70E947B01D80111960B
:101430008C9111978F5F11968C93F3947BCF0E94C0
:101440005404F4CF0E940807F80180818150808302
:101450000E940807F2CF65E070E080E090E00E9413
:101460007E060E94280636CFA1E21A2EAA1BBB1BBD
:10147000FD010DC0AA1FBB1FEE1FFF1FA217B30760
:10148000E407F50720F0A21BB30BE40BF50B661F76
:10149000771F881F991F1A9469F76095709580953A
:1014A00090959B01AC01BD01CF010895052E97FBDE
:1014B0001EF400940E946D0A57FD07D00E94340A62
:1014C00007FC03D04EF40C946D0A5095409530956E
:1014D00021953F4F4F4F5F4F0895909580957095A0
:1014E00061957F4F8F4F9F4F0895EE0FFF1F881F0D
:0E14F0008BBF0790F691E02D1994F894FFCF72
:1014FE00FF050115012501370149015D01710188C3
:10150E00019F01B801D201ED0100000000BB0525CD
:10151E0005520508068305610575050405040B04CF
:10152E00020005020205040005020B040209040470
:10153E000904020005020405040205020004020B60
:10154E0004060B0402020504040504000504090444
:10155E00040904040000040000020205040505024B
:10156E000905040705020505020405060005020427
:10157E0005040205020005020B04060B0402020517
:10158E00040405040005040904040904040000040D
:10159E000405040B04020005020205040005020BFB
:1015AE0004020904040904020005020405040205EC
:1015BE00020004020B04060B0402020504040504D7
:1015CE0000050409040409040400000400000202DA
:1015DE0005040505020905040705020505020405B3
:1015EE00060005020405040205020005020B0406AE
:1015FE000B04020205040405040005040904040991
:10160E0004040000040405080005080205080B0484
:10161E00080005080904090804080B040804050855
:10162E000005080205080B0408000504040504095A
:10163E0005040905040805100000000405040B0448
:10164E00020005020205040005020B04020904044F
:10165E000904020005020405040205020004020B3F
:10166E0004060B0402020504040504000504090423
:10167E00040904040000040000020205040505022A
:10168E000905040705020505020405060005020406
:10169E0005040205020005020B04060B04020205F6
:1016AE0004040504000504090404090404000004EC
:1016BE000405040B04020005020205040005020BDA
:1016CE0004020904040904020005020405040205CB
:1016DE00020004020B04060B0402020504040504B6
:1016EE0000050409040409040400000400000202B9
:1016FE000504050502090504070502050502040592
:10170E00060005020405040205020005020B04068C
:10171E000B0402020504040504000504090404096F
:10172E0004040000040405080005080205080B0463
:10173E00080005080904090804080B040804050834
:10174E000005080205080B04080005040405040939
:10175E0005040905040805100000000D0A003B20D1
:04176E00002C20002B
:00000001FF
